:020000040800F2
:1000000000000220D53700086516000867160008B2
:10001000691600086B1600086D1600080000000045
:100020000000000000000000000000006F16000843
:10003000711600080000000073160008751600080D
:10004000253800082538000825380008253800081C
:10005000253800082538000825380008253800080C
:1000600025380008253800082538000825380008FC
:100070008116000825380008911600082538000868
:1000800025380008253800082538000825380008DC
:1000900025380008253800082538000825380008CC
:1000A00025380008253800082538000825380008BC
:1000B00025380008253800082538000825380008AC
:1000C000253800082538000825380008253800089C
:1000D000253800082538000825380008253800088C
:1000E000253800082538000825380008253800087C
:1000F000A116000825380008253800082538000812
:10010000253800082538000825380008253800085B
:100110002538000825380008B1160008C116000867
:10012000D116000825380008E11600082538000817
:1001300025380008000000000000000025380008F5
:10014000253800082538000825380008253800081B
:10015000253800082538000825380008253800080B
:1001600025380008253800082538000825380008FB
:1001700025380008253800080000000000000000B5
:080180002538000825380008AD
:1001880010B5054C237833B9044B13B10448AFF3C9
:1001980000800123237010BDAC0000200000000087
:1001A800B845000808B5034B1BB103490348AFF332
:1001B800008008BD00000000B0000020B84500081D
:1001C80053B94AB9002908BF00281CBF4FF0FF31B6
:1001D8004FF0FF3000F06EB9ADF1080C6DE904CEB8
:1001E80000F006F8DDF804E0DDE9022304B070470A
:1001F8002DE9F047089D04468C46002B40F083808B
:100208008A42174647D9B2FA82F242B1C2F12000B7
:1002180024FA00F09140974040EA010C94404FEADC
:100228001748230CBCFBF8F61FFA87FE08FB16C11B
:1002380043EA014306FB0EF1994209D9FB1806F17E
:10024800FF3080F01981994240F21681023E3B440A
:100258005B1AA4B2B3FBF8F008FB103344EA03447A
:1002680000FB0EFEA64509D93C1900F1FF3380F0CA
:100278000581A64540F2028102383C4440EA064026
:10028800A4EB0E0400261DB1D4400023C5E90043A9
:100298003146BDE8F08702B9FFDEB2FA82F2002AE1
:1002A80050D1CB1B4FEA174E1FFA87F80126B3FB34
:1002B800FEFC210C0EFB1C3341EA034108FB0CF346
:1002C8008B4207D979180CF1FF3002D28B4200F229
:1002D800E9808446C91AA3B2B1FBFEF00EFB1011E7
:1002E80043EA014408FB00F8A04507D93C1900F18E
:1002F800FF3302D2A04500F2D9801846A4EB0804C7
:1003080040EA0C40BFE78B4209D9002D00F0B180CC
:100318000026C5E9000130463146BDE8F087B3FA4A
:1003280083F6002E4AD18B4202D3824200F2B88073
:10033800841A61EB030101208C46002DA8D0C5E981
:10034800004CA5E7C2F1200320FA03F6974001FA12
:1003580002F04FEA174ED9403043030CB1FBFEF6CA
:100368001FFA87F80EFB161143EA014306FB08F152
:10037800994204FA02F409D9FB1806F1FF3C80F00F
:100388008D80994240F28A80023E3B445B1A81B2DA
:10039800B3FBFEF00EFB103341EA034100FB08F308
:1003A8008B4207D9791800F1FF3C73D28B4271D97F
:1003B80002383944CB1A40EA064678E7C6F1200CE1
:1003C80003FA06F422FA0CF31C4320FA0CF701FA9C
:1003D80006F34FEA144E21FA0CF11F433B0CB1FB14
:1003E800FEF91FFA84F80EFB191143EA014109FBD3
:1003F80008FA8A4502FA06F200FA06F308D96118E3
:1004080009F1FF3048D28A4546D9A9F102092144A9
:10041800A1EB0A01BFB2B1FBFEF00EFB101147EAD7
:10042800014700FB08F8B84507D9E71900F1FF3183
:100438002ED2B8452CD90238274440EA0940A7EB08
:100448000807A0FB02894F45C64649461AD317D06C
:100458005DB1B3EB0E0267EB010707FA0CFCF24043
:100468004CEA0202F740C5E9002700263146BDE8FC
:10047800F0872E4628460BE70646E9E61846FDE6CD
:100488004345E5D2B8EB020E69EB04010138DFE71A
:100498000846D2E760468DE78146B9E7664675E7C4
:1004A80030464AE7ACF1020C394413E702383C44C1
:1004B80024E700BF704700BF70B52DED028B002404
:1004C800052C14DC0B4D55F8246096ED018AB0EE2E
:1004D800480A03F0D1F986ED020A55F82450B0EE27
:1004E800480A03F011FA85ED030A0134E8E7BDEC88
:1004F800028B70BD7400002008B50A4B4FF4D2720D
:10050800DA62FFF7D9FF084B084ADA62084801F0B7
:1005180017FD03220749084801F0C8F9074801F008
:100528000FFD08BD00040140001400401F480100F1
:1005380084030020E0000020F4000020C402002012
:10054800034BA3FB003040090130C0B2704700BF25
:100558008988888830B40D461446013805280CD897
:10056800DFE800F0030D161F28311B4B0FCB85E881
:100578000F001A4B0FCB84E80F0030BC7047174BA5
:100588000FCB85E80F00164B0FCB84E80F00F4E77C
:10059800134B0FCB85E80F00124B0FCB84E80F00ED
:1005A800EBE7104B0FCB85E80F000F4B0FCB84E820
:1005B8000F00E2E70C4B0FCB85E80F000B4B0FCB7E
:1005C80084E80F00D9E7094B0FCB85E80F00024BF1
:1005D8000FCB84E80F00D0E734000020540000203F
:1005E8001400002024000020040000204400002003
:1005F80010B48FB004AC84E80F00F7EE007A77EE01
:10060800C07A77EEE07AB6EE007A27EE877A344B36
:100618001A7807EE902AF8EEE77A67EE877A9DF85F
:10062800102006EE902AF8EEE66A66EE806A77EE0B
:10063800A67A9DF8402006EE902AF8EEE66A66EE65
:10064800A06A77EEA67ACDED087A5A7807EE902A56
:10065800F8EEE77A67EE877A9DF8112006EE902A81
:10066800F8EEE66A66EE806A77EEA67A9DF8412093
:1006780006EE902AF8EEE66A66EEA06A77EEA67AAB
:10068800CDED097A9B7807EE903AF8EEE77A67EEB7
:10069800877A9DF8123007EE103AB8EEC77A27EE3F
:1006A800000A37EE800A9DF8423007EE903AF8EEDD
:1006B800E77A67EEA00A70EE200ACDED0A0A08ABC9
:1006C80093E807000EAB03E907009DED0B0ADDED8B
:1006D8000C0A9DED0D1A0FB05DF8044B704700BF72
:1006E8006400002084B08DED010ACDED020A8DED85
:1006F800031A124BD3ED0B7AF8EE677A27EE811ABC
:10070800BCEEC11A83ED0D1AD3ED0B7AF8EE677AB9
:100718009DED027A67EE877AFCEEE77AC3ED0E7AF2
:10072800D3ED0B7AF8EE677A9DED017A67EE877A5A
:10073800FCEEE77AC3ED0F7A04B07047000401407D
:10074800013805285BD8DFE800F003121F303F4C62
:10075800DFED2B7A60EEA77A30EE670A81ED000AAA
:10076800DFED287A60EEA70AC2ED000A7047DFEDD8
:10077800247A60EEA70A70EE807AC1ED007A70EEF6
:10078800C00AC2ED000A7047DFED1E7A60EEA77A54
:10079800C1ED007AB1EE400ADFED197A60EEA70AE2
:1007A80070EE600AC2ED000A7047DFED157A60EE60
:1007B800A77A37EEC00A81ED000ADFED137A60EE02
:1007C800A70AC2ED000A7047DFED107A60EEA70AAB
:1007D80070EEC07AC1ED007A70EE200AC2ED000A10
:1007E8007047DFED097A60EEA77AC1ED007ADFED98
:1007F800047A60EEA77A77EE800AC2ED000A7047A5
:1008080036CD133F36CD933F36CD93BF36CD13BF8C
:10081800F0B591B0354B93ED007ADFED356A27EEF0
:10082800267A9FED346AC7EE067A334B93ED007A49
:1008380077EE877AC3ED007AF4EEE67AF1EE10FAF5
:1008480015DDFDEEE77A17EE903A2C4A82FB03128B
:10085800D118DA17C2EB21224FF4B47101FB12321E
:1008680007EE902AF8EEE77A234BC3ED007A224F81
:10087800D7ED007AFDEEE77A17EE900AFFF760FEF3
:10088800064608AD0CAC2A462146FFF763FE05A9CB
:1008980004A897ED000A00F04BFEDFED197A9DEDF4
:1008A800050A20EE270A8DED050ADDED040A60EE43
:1008B800A70ACDED040A06AA07A93046FFF740FFAC
:1008C80095E80F008DE80F0094E80F00DDED060AAB
:1008D8009DED070AFFF78CFE0A4B83ED000AC3ED76
:1008E800010A83ED021A11B0F0BD00BF000000201C
:1008F8000000B44300007A44D4000020B7600BB66F
:10090800F6285C3FC800002010B5044602680A4B70
:100918009A4204D02268094B9A4203D010BDFFF7CF
:1009280077FFF7E7064B93ED000AD3ED010A93ED45
:10093800021AFFF7D7FEF1E7001400400004014057
:10094800C80000207047000030B595B03022002163
:1009580008A802F089FF00240394049405940694DF
:10096800079401941B4B1A6C42F080521A641B6C5A
:1009780003F080530193019B0294174B1A6842F4C9
:1009880080421A601B6803F480430293029B012390
:1009980008934FF48033099302250E954FF4800392
:1009A8000F9304231093A82211921295139308A869
:1009B80002F028F80F230393049505944FF4A053ED
:1009C80006934FF480530793052103A802F050FAC9
:1009D80015B030BD003802400070004008B502F084
:1009E800A3FEFFF7B1FF00F05FF800F077FA00F020
:1009F800C3F800F01FFA00F0ADFA00F003FB00F0B6
:100A080069FC00F0EDFC00F02DFB00F053FB00F05A
:100A1800F9F8B7EE000AFFF76FFD124B01221A70C2
:100A28001AE0114B00221A70104B1A8800EE102A97
:100A38005B8800EE903A0E4B1A8801EE102A5B880C
:100A480001EE903AF8EE611AB8EE411AF8EE600A33
:100A5800B8EE400A00F054FD034B1B78002BFBD086
:100A6800DFE700BFD8000020F0000020E8000020E9
:100A7800E0000020084B1B782BB1084A13680133AB
:100A88001360022B00D07047134600221A60044BF3
:100A980001221A70F7E700BFD8000020DC00002010
:100AA800F000002070470000F0B58BB000240594DA
:100AB800069407940894099401942B4B1A6B42F0FE
:100AC80080021A631A6B02F080020192019A029462
:100AD8001A6B42F004021A631A6B02F004020292C3
:100AE800029A03941A6B42F001021A631A6B02F01D
:100AF80001020392039A04941A6B42F002021A63E9
:100B08001B6B03F002030493049B184D22464FF419
:100B18000071284602F064FB154E22464FF400414E
:100B2800304602F05DFB08230593124B06930794A9
:100B380005A9284602F070FA4FF4007305930127BF
:100B480006970794089405A9284602F065FA4FF419
:100B58000043059306970794089405A9304602F0C8
:100B68005BFA0BB0F0BD00BF00380240000802403D
:100B7800000002400000111000B585B0002300936A
:100B88000193029303931D481D4A02604FF480327B
:100B98004260836001220261037680F820304FF0C2
:100BA8008051C1624FF060618162C3600221C161FE
:100BB80080F83020436100F04DFEA8B90B23009364
:100BC80001230193029369460C4800F077FF70B93E
:100BD80003230093022301936946084800F06EFF3F
:100BE80040B905B05DF804FBFFF75CFFE6E7FFF7E7
:100BF80059FFEDE7FFF756FFF3E700BF3C01002080
:100C08000020014000B585B00023009301930293B2
:100C180003932348234A02604FF480324260836082
:100C280001220261037680F820304FF08051C162C2
:100C38004FF060618162C3600321C16180F8302098
:100C4800436100F007FEF0B90C23009301230193E0
:100C580002936946124800F031FFB8B904230093A3
:100C68000223019369460E4800F028FF88B905233E
:100C78000093032301936946094800F01FFF58B900
:100C880005B05DF804FBFFF70DFFDDE7FFF70AFF8E
:100C9800E4E7FFF707FFEAE7FFF704FFF0E700BF25
:100CA800F40000200021014070B58CB004460023F8
:100CB8000793089309930A930B930368544A934242
:100CC80004D0544A934251D00CB070BD0025019510
:100CD800514B5A6C42F480725A645A6C02F4807216
:100CE8000192019A02951A6B42F004021A631A6B78
:100CF80002F004020292029A03951A6B42F0010272
:100D08001A631B6B03F001030393039B02230793EE
:100D18000326089607A9414802F07EF9082307939D
:100D28000896099507A93E4802F076F93D483E4BDA
:100D3800036045608560C5604FF4806303614FF4CC
:100D4800006343614FF4005383614FF48073C361C0
:100D58004FF400330362456202F0C8FA18B9314B08
:100D6800A3639C63B0E7FFF79DFEF8E700250495B1
:100D7800294B5A6C42F400725A645A6C02F400729D
:100D88000492049A05951A6B42F004021A631A6BCE
:100D980002F004020592059A06951A6B42F00102C8
:100DA8001A631B6B03F001030693069B0423079346
:100DB8000326089607A9194802F02EF9302307934D
:100DC8000896099507A9164802F026F91748184BFE
:100DD80003604FF0007343608560C5604FF4806323
:100DE80003614FF4006343614FF4005383614FF490
:100DF8008073C3614FF400330362456202F076FAF0
:100E080018B90A4BA3639C635EE7FFF74BFEF8E74C
:100E18000020014000210140003802400008024043
:100E2800000002408401002010640240E401002018
:100E38004064024008B50B480B4B03601023436025
:100E480000238360C360036143610376437683763E
:100E5800C3760377437700F0F9FE00B908BDFFF7C2
:100E680021FEFBE7440200200064004000B589B081
:100E78000023039304930593069307930268154B85
:100E88009A4202D009B05DF804FB0021019103F5F4
:100E9800EA331A6C42F000721A641A6C02F000729B
:100EA8000192019A02911A6B42F001021A631B6BBC
:100EB80003F001030293029B4FF4C05303930223F0
:100EC8000493032306930923079303A9024802F016
:100ED800A3F8D7E7006400400000024010B582B0D4
:100EE800002400941A4B1A6B42F400121A631A6B0E
:100EF80002F400120092009A01941A6B42F48002E4
:100F08001A631B6B03F480030193019B224621465D
:100F18000C2002F08BFB0C2002F0BCFB2246214681
:100F28000E2002F083FB0E2002F0B4FB224621467D
:100F3800382002F07BFB382002F0ACFB2246214629
:100F48003A2002F073FB3A2002F0A4FB02B010BD75
:100F58000038024008B50D480D4B03604FF482730A
:100F6800436000238360C360036143614FF40072F0
:100F78008261C3610362436283620A23C36200F031
:100F88000BFF00B908BDFFF78DFDFBE76C020020E1
:100F9800003C004000B589B00023039304930593F7
:100FA800069307930268154B9A4202D009B05DF880
:100FB80004FB0021019103F5FE331A6C42F4004250
:100FC8001A641A6C02F400420192019A02911A6B97
:100FD80042F004021A631B6B03F004030293029BA2
:100FE8004FF4E05303930223049303230693062349
:100FF800079303A9024802F00FF8D7E7003C004026
:101008000008024000B58DB00023019302931348F5
:10101800134A026043608360C360036183610122F5
:1010280003920493059206930793089309920A93EF
:101038000B9303A901F00AF950B900230193029315
:1010480001A9064801F025FA28B90DB05DF804FB9E
:10105800FFF728FDF1E7FFF725FDF6E70403002079
:101068000008004000B583B00023009301930F48A7
:101078000F4A02605322426083604FF6FF72C260DB
:10108800836101F095F850B90023009301936946F4
:10109800064801F0FEF928B903B05DF804FBFFF734
:1010A80001FDF1E7FFF7FEFCF6E700BF440300206F
:1010B8000010004000B583B00023009301930E4850
:1010C8000E4A0260436083604FF4D272C26083614B
:1010D80001F06EF850B90023009301936946064861
:1010E80001F0D7F928B903B05DF804FBFFF7DAFC83
:1010F800F1E7FFF7D7FCF6E784030020001400406F
:1011080000B589B0002303930493059306930793CE
:101118000268144B9A4202D009B05DF804FB002221
:10112800019203F50C33196C41F004011964196C30
:1011380001F00401019101990292196B41F0020139
:1011480019631B6B03F002030293029BC0230393F2
:101158000223049305920692079303A9024801F01B
:101168005BFFD9E7000800400004024000B583B0E7
:101178000368184A934205D0174A934216D003B021
:101188005DF804FB00210091144B1A6C42F0100228
:101198001A641B6C03F010030093009B0A46362068
:1011A80002F044FA362002F075FAE8E700210191CE
:1011B8000A4B1A6C42F020021A641B6C03F02003DD
:1011C8000193019B0A46372002F030FA372002F0DB
:1011D80061FAD4E7001000400014004000380240D3
:1011E80002680E4B9A4200D0704700B583B00021C8
:1011F800019103F59A335A6C42F002025A645B6C0F
:1012080003F002030193019B0A462C2002F00EFA18
:101218002C2002F03FFA03B05DF804FB0004014003
:1012280070B588B00023039304930593069307933E
:10123800026803F1804303F582339A4201D008B073
:1012480070BD0024009403F59A331A6B42F0010232
:101258001A631A6B02F001020092009A01941A6B49
:1012680042F002021A631A6B02F002020192019A1A
:1012780002941A6B42F004021A631B6B03F0040316
:101288000293029B802303930226049605940694F6
:101298000325079503A90C4801F0BEFE03950496A3
:1012A80005940694079503A9084801F0B5FE4FF484
:1012B800E0730393049605940694079503A90448DC
:1012C80001F0AAFEBBE700BF000002400004024094
:1012D8000008024010B592B00024109411940994AB
:1012E8000A940B940C940D940E940F94202221468A
:1012F80001A802F0B9FA3848384B0360446040232B
:1013080083604FF45263C360046101234361802307
:10131800836100F081FF002845D12F4800F062FF6B
:10132800002843D1202310930023119310A92A48A1
:1013380001F0AFF800283CD17023099300220A92EB
:101348000B920C920D920E920F9209A9224801F06D
:1013580032F8002830D1042209A91F4801F02BF8DF
:1013680068BB082209A91C4801F025F850BB702366
:1013780009930C2209A9184800F0EEFF28BB0023A6
:10138800019302930393049305934FF4005206923A
:10139800089301A9104801F09FF8C8B90E48FFF753
:1013A8003FFF12B010BDFFF77DFBB6E7FFF77AFBF2
:1013B800B8E7FFF777FBBFE7FFF774FBCBE7FFF76B
:1013C80071FBCEE7FFF76EFBD1E7FFF76BFBD6E7C4
:1013D800FFF768FBE2E700BFC402002000040140F9
:1013E80008B50A480A4B03604FF4E1334360002311
:1013F8008360C36003610C2242618361C36101F0B1
:1014080062FA00B908BDFFF74DFBFBE72404002092
:101418000048004030B589B0002303930493059336
:10142800069307930268304B9A4201D009B030BD49
:1014380004460025019503F5F8331A6C42F480221E
:101448001A641A6C02F480220192019A02951A6BAE
:1014580042F002021A631B6B03F002030293029B21
:101468004FF440630393022304930123059303235A
:1014780006930723079303A91C4801F0CDFD1C48D8
:101488001C4B03604FF0006343608560C5604FF4F8
:101498008063036145618561C5610562456201F04C
:1014A80025FFD8B9124B63639C631348134B036041
:1014B8004FF000634360402383600023C3604FF410
:1014C8008062026143618361C3610362436201F028
:1014D8000DFF30B9084B23639C63A7E7FFF7E2FAD7
:1014E800E0E7FFF7DFFAF5E70048004000040240B4
:1014F800C4030020286002406404002058600240B1
:1015080008B509490D230B750A234B7581ED010AAE
:10151800C1ED020A81ED031AC1ED041A64231622F3
:10152800024801F0FFF908BD8C00002024040020C7
:1015380030B4DFED467A20EE270AFDEEC07AB5EE2C
:10154800C00AF1EE10FA7AD4F8EEE77A30EE670ABC
:10155800DFED3F7A20EE270AFCEEC07A17EE903ACC
:10156800C3F3080303F18002C2F3080207EE903ABE
:10157800F8EE677A30EE670A364C04EB8205D5ED53
:10158800006A013204EB8202D2ED003A04EB8302D6
:10159800D2ED004AB1EE645A013304EB830393EDB4
:1015A800007A33EEE66A75EE477ADFED2B5A67EE7E
:1015B800A57A36EE064A77EEC47A60EE277AB0EE60
:1015C800083A26EE036A35EE054A34EE474A24EE19
:1015D800254A36EE446A77EE867A60EE277A25EE5B
:1015E800255A77EE857A60EE277A77EEA67AC1EDEE
:1015F800007A37EE647A76EEA37A67EEA57A37EE4C
:10160800076A77EEC67A60EE277A27EE037A36EE17
:10161800A66A36EE236A26EE256A37EE467A77EE14
:10162800877A60EE277A66EEA56A77EEA67A20EECC
:10163800270A34EE800A80ED000A30BC704717EEA6
:10164800903A013B07EE903A7EE700BF610B363BCC
:1016580000000044D0450008DB0F493C7047FEE716
:10166800FEE7FEE7FEE770477047704708B502F0EF
:1016780075F8FFF7FFF908BD08B5024801F0D6FE76
:1016880008BD00BFC403002008B5024801F0CEFE23
:1016980008BD00BF6404002008B5024800F066FCDD
:1016A80008BD00BFC402002008B5024800F05EFC77
:1016B80008BD00BF4403002008B5024800F056FCEE
:1016C80008BD00BF8403002008B5024801F0AEFE43
:1016D80008BD00BF8401002008B5024801F0A6FE3D
:1016E80008BD00BFE401002082B0002100910B4B2F
:1016F8005A6C42F480425A645A6C02F48042009256
:10170800009A01911A6C42F080521A641B6C03F023
:1017180080530193019B02B0704700BF003802401C
:101728004A4B5A6822F440325A605A6841680A4360
:101738005A600268536823F48073536002685368E0
:10174800016943EA012353600268536823F0407338
:1017580053600268536881680B435360026893685A
:1017680023F40063936002689368C1680B43936035
:10177800826A374B9A4257D00268936823F07063A5
:10178800936002689368816A0B4393600268936868
:1017980023F04053936002689368C16A0B439360D7
:1017A8000268936823F00203936002689368017EDD
:1017B80043EA4103936090F82030002B3FD0026841
:1017C800536843F4006353600268536823F460432A
:1017D800536001684B68426A013A43EA42334B60FE
:1017E8000268D36A23F47003D3620168CB6AC269C2
:1017F800013A43EA0253CB620268936823F4007308
:1018080093600268936890F8301043EA412393602C
:101818000268936823F4806393600268936841695F
:1018280043EA8123936070470268936823F07063EA
:1018380093600268936823F040539360B0E70268AE
:10184800536823F400635360CAE700BF00230140D4
:101858000100000F38B310B50446036C43B1236C84
:1018680013F0100F0BD00120002384F83C3010BD7A
:10187800FFF71AFA0023636484F83C30EFE7236C1F
:1018880023F4885323F0020343F002032364204621
:10189800FFF746FF00206064236C23F0030343F046
:1018A80001032364E0E701207047000030B583B0EE
:1018B8000023019390F83C30012B00F09A8001231B
:1018C80080F83C300468A36813F0010F12D1A368B4
:1018D80043F00103A3604B4B1C684B4BA3FB043440
:1018E800A40C04EB44040194019C1CB1019C013C30
:1018F8000194F9E703689C6814F0010F7BD0046C2D
:1019080024F4E06424F0010444F4807404645B6803
:1019180013F4806F05D0036C23F4405343F48053D1
:101928000364036C13F4805F38D0436C23F0060320
:10193800436413460446002280F83C20826B3348F7
:10194800D063A26B32481064A26B3248D06422681C
:101958006FF0220010602568686840F08060686059
:101968002568A86840F48070A86020680A4600F1DD
:101978004C01A06B01F020FD274B5B6813F01F0F93
:1019880027D12368254A934211D002F580729342E9
:1019980007D0234A934214D000202DE0002343644B
:1019A800C7E702F50072526812F01F0FF1D19A686A
:1019B80012F0405F22D19A6842F080429A6000207B
:1019C8001AE002F58072526812F0100FEFD0002072
:1019D80012E02368114A934201D000200CE09A6873
:1019E80012F0405F0CD19A6842F080429A60002061
:1019F80002E0022000E0002003B030BD0020FBE739
:101A08000020F9E7A800002083DE1B43511A0008D4
:101A18002F1A00083B1A000800230140002001404B
:101A280000220140704708B5806BFFF7FBFF08BD37
:101A3800704708B5806B40230364436C43F004038C
:101A48004364FFF7F5FF08BD08B5836B1A6C12F005
:101A5800500F26D11A6C42F400721A641A68916801
:101A680011F0405F19D1197EB9B9D16A11F4700F1C
:101A780003D0916811F4806F0FD1516821F02001D3
:101A880051601A6C22F480721A641A6C12F4805F26
:101A980003D11A6C42F001021A641846FEF752FF8D
:101AA80008BD1A6C12F0100F03D19B6BDB6C9847C2
:101AB800F6E71846FFF7BCFFF2E7000030B482B043
:101AC8000023019390F83C30012B00F0B6800123ED
:101AD80080F83C300B68092B3ED90568EA689BB250
:101AE80003EB43031E3B072404FA03F322EA030330
:101AF800EB600568EA688C680B8803EB43031E3BC0
:101B080004FA03F31343EB604B68062B3AD80568D5
:101B18006A6B03EB8303053B1F2404FA03F322EAF1
:101B280003036B6305686A6B4B6803EB8303053B30
:101B38000C8804FA03F313436B630268404B9A4220
:101B480050D002683E4B9A4255D0002380F83C3072
:101B5800184602B030BC704705682A699BB203EB8F
:101B68004303072404FA03F322EA03032B610568FD
:101B78002A698C680B8803EB430304FA03F31343C5
:101B88002B61C1E70C2B16D805682A6B03EB83037E
:101B9800233B1F2404FA03F322EA03032B6305689B
:101BA8002A6B4B6803EB8303233B0C8804FA03F38B
:101BB80013432B63C1E70568EA6A03EB8303413BE0
:101BC8001F2404FA03F322EA0303EB620568EA6AB6
:101BD8004B6803EB8303413B0C8804FA03F313437C
:101BE800EB62AAE70B68122BABD1164A536843F491
:101BF80080035360A5E70B68103B012BA5D8114A59
:101C0800536843F4000353600B68102B9DD10E4BAF
:101C18001B6802F1467202F52E3202F28332A2FBF1
:101C280003239B0C03EB83035A000192019B002BB7
:101C38008BD0019B013B0193F8E7022089E700BFA5
:101C48000020014000230140A8000020002800F0E7
:101C5800A18038B5044690F82030D3B122681368C3
:101C680023F00203136001F085FD054623685A68D6
:101C780012F0020F10D001F07DFD401B0A28F5D9A3
:101C8800636A43F400336362052384F8203001203B
:101C980038BDFFF7EBF8E1E71A6842F001021A6075
:101CA80001F068FD054623685A6812F0010F0DD14E
:101CB80001F060FD401B0A28F5D9636A43F400333C
:101CC8006362052384F820300120E1E7227E012A9F
:101CD8003DD01A6822F080021A60637E012B3BD047
:101CE8002268136823F040031360A37E012B39D0C8
:101CF8002268136823F020031360E37E012B37D09A
:101D08002268136843F010031360237F012B35D03A
:101D18002268136823F008031360637F012B33D014
:101D28002268136823F004031360A368E26813436E
:101D380022691343626913436268013A21681343B5
:101D4800CB6100206062012384F82030A0E71A6884
:101D580042F080021A60C0E72268136843F040032B
:101D68001360C2E72268136843F020031360C4E7D6
:101D78002268136823F010031360C6E7226813680B
:101D880043F008031360C8E72268136843F00403AC
:101D98001360CAE70120704700283BD010B50446FD
:101DA8000023836290F85130002B2ED0022384F850
:101DB80051302268136823F0400313606368A268F7
:101DC8001343E26813432269134362691343A26908
:101DD80002F400721343E2691343226A1343A16AAF
:101DE80022680B431360638B03F00403616A226863
:101DF8000B4353602268D36923F40063D361002046
:101E08006065012384F8513010BD80F85030FFF729
:101E1800C1F8CBE70120704730B4036A23F001030F
:101E28000362056A4268846924F073040B681C43E2
:101E380025F002058B682B43104DA84203D005F509
:101E48008065A84205D123F00803CD682B4323F011
:101E580004030A4DA84203D005F58065A84205D1C0
:101E680022F440724D6915438A692A4342608461AD
:101E78004A684263036230BC704700BF00000140FB
:101E880030B4036A23F480730362036A4268C46946
:101E980024F073040D682C4323F400738D6843EA1F
:101EA8000523124DA84203D005F58065A84206D146
:101EB80023F40063CD6843EA052323F480630B4DC4
:101EC800A84203D005F58065A84207D122F4405204
:101ED8004D6942EA05128D6942EA05124260C46101
:101EE8004A68C263036230BC704700BF000001400B
:101EF80030B4036A23F480530362036A4468C269F6
:101F080022F4E6420D6842EA052223F400538D6864
:101F180043EA0533094DA84203D005F58065A84278
:101F280004D124F480444D6944EA85144460C261B4
:101F38004A680264036230BC704700BF0000014079
:101F48000268D36843F00103D3600268936803F022
:101F58000703062B03D0136843F001031360002026
:101F680070477047704770477047704710B5044610
:101F780003681A6912F0020F11D0DA6812F0020F22
:101F88000DD06FF002021A610123037703689B6981
:101F980013F0030F70D0FFF7E6FF002323772368C1
:101FA8001A6912F0040F12D0DA6812F0040F0ED07A
:101FB8006FF004021A610223237723689B6913F4E4
:101FC800407F5FD02046FFF7CEFF002323772368AA
:101FD8001A6912F0080F12D0DA6812F0080F0ED042
:101FE8006FF008021A61042323772368DB6913F072
:101FF800030F4ED02046FFF7B6FF00232377236850
:102008001A6912F0100F12D0DA6812F0100F0ED001
:102018006FF010021A61082323772368DB6913F431
:10202800407F3DD02046FFF79EFF0023237723689B
:102038001A6912F0010F03D0DA6812F0010F36D1D5
:1020480023681A6912F0800F03D0DA6812F0800F43
:1020580034D123681A6912F0400F03D0DA6812F0FD
:10206800400F32D123681A6912F0200F03D0DA68C2
:1020780012F0200F30D110BDFFF774FF2046FFF794
:1020880073FF8AE72046FFF76DFF2046FFF76CFFD6
:102098009BE72046FFF766FF2046FFF765FFACE7A2
:1020A8002046FFF75FFF2046FFF75EFFBDE76FF0B2
:1020B80001021A612046FEF727FCC1E76FF0800293
:1020C8001A61204600F032FAC3E76FF040021A6145
:1020D8002046FFF74AFFC5E76FF020021A61204645
:1020E80000F023FAC7E700000368304A904212D094
:1020F800B0F1804F0FD0A2F57C4290420BD002F590
:102108008062904207D002F58062904203D002F5C7
:102118007842904203D123F070034A681343234A5C
:1021280090422AD0B0F1804F27D0A2F57C4290424D
:1021380023D002F5806290421FD002F5806290425F
:102148001BD002F57842904217D002F570529042A7
:1021580013D002F5806290420FD002F5806290425F
:102168000BD0A2F59832904207D002F580629042D7
:1021780003D002F58062904203D123F44073CA6809
:10218800134323F080034A69134303608B68C362D7
:102198000B688362054B984203D003F5806398422D
:1021A80001D10B69036301234361704700000140BB
:1021B800B0B110B5044690F83D3063B1022384F8FD
:1021C8003D30214651F8040BFFF78EFF012384F8B8
:1021D8003D30002010BD80F83C30FEF7C7FFEDE72A
:1021E80001207047B0B110B5044690F83D3063B196
:1021F800022384F83D30214651F8040BFFF774FFA1
:10220800012384F83D30002010BD80F83C30FFF7F2
:10221800A8FEEDE701207047B0B110B5044690F86C
:102228003D3063B1022384F83D30214651F8040B58
:10223800FFF75AFF012384F83D30002010BD80F8D5
:102248003C30FEF7CDFFEDE701207047002849D06C
:10225800F8B505460C4690F83D30002B3DD00223DA
:1022680085F83D302A68936823F4804323F00703F8
:102278009360294651F8040BFFF736FF29688A68EE
:102288008E690F6A2068104326F4407626F003060C
:10229800A268A36942EA0323334323F47C4323F06F
:1022A800FC03E668E26946EA02261E43226A130333
:1022B800226943EA0213334327F0AA076268646974
:1022C80042EA04123A43886029688B612B681A62D3
:1022D800012385F83D300020F8BD80F83C30FEF73A
:1022E8000FFFBCE70120704730B4036A23F01003E6
:1022F8000362036A4468826922F4E6420D6842EA8E
:10230800052223F020038D6843EA0513114DA842E6
:1023180003D005F58065A84206D123F08003CD6877
:1023280043EA051323F040030A4DA84203D005F5FC
:102338008065A84207D124F440644D6944EA8504C5
:102348008D6944EA8504446082614A688263036255
:1023580030BC70470000014090F83C30012B28D079
:1023680010B50446012380F83C30022380F83D3044
:102378000C2A0BD8DFE802F0070A0A0A110A0A0A2F
:10238800150A0A0A19000068FFF746FD012384F8B8
:102398003D30002084F83C0010BD0068FFF7A4FF22
:1023A800F4E70068FFF76CFDF0E70068FFF7A0FDB1
:1023B800ECE70220704738B590F83C30012B66D026
:1023C8000D460446012380F83C30022380F83D3056
:1023D8000C2A1AD8DFE802F0071919192019191957
:1023E8003419191947000068FFF716FD2268936928
:1023F80043F0080393612268936923F0040393610F
:102408002268936929690B439361012384F83D305D
:10241800002084F83C0038BD0068FFF765FF22689B
:10242800936943F4006393612268936923F480639A
:10243800936122689369296943EA01239361E4E778
:102448000068FFF71DFD2268D36943F00803D361D4
:102458002268D36923F00403D3612268D369296908
:102468000B43D361D1E70068FFF742FD2268D369C7
:1024780043F40063D3612268D36923F48063D36192
:102488002268D369296943EA0123D361BDE70220A1
:10249800C1E790F83C30012B1CD070B4012680F8BD
:1024A8003C60022380F83D3002685568936825F047
:1024B80070050C682C4323F080054B682B4354604F
:1024C8000268936080F83D60002380F83C3018462D
:1024D80070BC70470220704790F83C30012B22D026
:1024E800012380F83C30CB6823F440738A68134397
:1024F80023F480634A68134323F400630A68134390
:1025080023F480530A69134323F400534A6913439D
:1025180023F48043CA69134302685364002380F894
:102528003C301846704702207047704770470000DB
:102538002DE9F84304460268136923F44053C1683F
:102548000B43136183680269134342691343C269E9
:102558001A430168CB6823F4164323F00C03134392
:10256800CB600268536923F4407381690B4353615C
:10257800C369B3F5004F60D00368B84A934200F0CE
:10258800148102F58062934200F00F8100F024FD6F
:1025980000EB800000EB80006568AD00B0FBF5F54E
:1025A800AF4FA7FB05356D092E0100F015FD00EBB7
:1025B800800000EB80006568AD00B0FBF5F900F025
:1025C8000BFD00EB800000EB80006568AD00B0FB00
:1025D800F5F5A7FB05356D094FF0640808FB15955F
:1025E8002D013235A7FB05356D0905F0F005354499
:1025F80000F0F2FC00EB800000EB80006668B6009B
:10260800B0FBF6F600F0E8FC00EB800000EB800081
:1026180063689B00B0FBF3F0A7FB0030400908FBA0
:1026280010684FEA081808F13208A7FB0837C7F303
:10263800431723682F449F600DE10368874A93423C
:102648005BD002F58062934257D000F0C5FC00EBE6
:10265800800000EB800065686D00B0FBF5F5804FE9
:10266800A7FB05356D092E0100F0B6FC00EB8000D4
:1026780000EB800065686D00B0FBF5F900F0ACFC7C
:1026880000EB800000EB800065686D00B0FBF5F59D
:10269800A7FB05356D094FF0640808FB1595ED009B
:1026A8003235A7FB05356D096D0005F4F87535441D
:1026B80000F092FC00EB800000EB8000666876007A
:1026C800B0FBF6F600F088FC00EB800000EB800021
:1026D80063685B00B0FBF3F3A7FB03235B0908FB0C
:1026E80013684FEAC80808F13208A7FB0837C7F390
:1026F800421723682F449F60ADE000F07DFC00EB9B
:10270800800000EB800065686D00B0FBF5F5544F64
:10271800A7FB05356D092E0100F06EFC00EB80006B
:1027280000EB800065686D00B0FBF5F900F064FC13
:1027380000EB800000EB800065686D00B0FBF5F5EC
:10274800A7FB05356D094FF0640808FB1595ED00EA
:102758003235A7FB05356D096D0005F4F87535446C
:1027680000F04AFC00EB800000EB80006668760011
:10277800B0FBF6F600F040FC00EB800000EB8000B8
:1027880063685B00B0FBF3F3A7FB03235B0908FB5B
:1027980013684FEAC80808F13208A7FB0837C7F3DF
:1027A800421723682F449F6055E000F025FC00EB9A
:1027B800800000EB80006568AD00B0FBF5F5284FA0
:1027C800A7FB05356D092E0100F016FC00EB800013
:1027D80000EB80006568AD00B0FBF5F900F00CFC7B
:1027E80000EB800000EB80006568AD00B0FBF5F5FC
:1027F800A7FB05356D094FF0640808FB15952D01F9
:102808003235A7FB05356D0905F0F005354400F0B4
:10281800F3FB00EB800000EB80006668B600B0FBBD
:10282800F6F600F0E9FB00EB800000EB800063683F
:102838009B00B0FBF3F0A7FB0030400908FB1068D1
:102848004FEA081808F13208A7FB0837C7F34317FF
:1028580023682F449F60BDE8F88300BF0010014043
:102868001F85EB512DE9F04105460F46164698465F
:10287800069C2B681B6837EA03030CBF012300235F
:10288800B3421DD1B4F1FF3FF3D02CB100F072FF79
:10289800A0EB0800A042ECD92A68D36823F4D073CF
:1028A800D3602A68536923F001035361202385F814
:1028B800393085F83A30002385F83830032000E0B5
:1028C8000020BDE8F08158B310B5044690F83930BF
:1028D8000BB3242384F839302268D36823F40053D7
:1028E800D3602046FFF724FE2268136923F490433F
:1028F80013612268536923F02A0353612268D3685D
:1029080043F40053D3600020E063202384F8393077
:1029180084F83A3010BD80F83830FEF77BFDD8E7F0
:10292800012070472DE9F04182B01E4690F83930F9
:10293800DBB2202B55D104460D469046002955D0D0
:10294800002A55D090F83830012B53D0012380F855
:1029580038300023C363212380F8393000F00AFFA0
:102968000746A4F82480A4F8268010E000963B4689
:10297800002280212046FFF775FF00283CD12B88D4
:102988002268C3F3080353602369C3B90235E38C93
:102998009BB2B3B1E38C013B9BB2E384A368B3F56C
:1029A800805FE3D000963B46002280212046FFF757
:1029B80059FF18BB15F8012B23685A60E7E7013562
:1029C800E5E700963B46002240212046FFF74AFFF4
:1029D8000346A8B9202284F83920002284F8382038
:1029E80000E00223184602B0BDE8F0810123F9E7B0
:1029F8000123F7E70223F5E70323F3E70323F1E7CE
:102A08000323EFE7002800F0B98170B582B00446CF
:102A1800036813F0010F3BD0A64B9B6803F00C032F
:102A2800042B2CD0A34B9B6803F00C03082B21D05C
:102A38006368B3F5803F4FD0B3F5A02F52D09D4BBC
:102A48001A6822F480321A601A6822F480221A6006
:102A58006368002B50D000F08DFE0546954B1B682F
:102A680013F4003F14D100F085FE401B6428F5D90B
:102A780003208AE18F4B5B6813F4800FD8D08D4B0D
:102A88001B6813F4003F03D06368002B00F07881C3
:102A9800236813F0020F54D0864B9B6813F00C0F79
:102AA8003ED0844B9B6803F00C03082B33D0E368BB
:102AB800002B67D0804B01221A6000F05BFE0546B0
:102AC8007C4B1B6813F0020F53D100F053FE401BE0
:102AD8000228F5D9032058E1764A136843F4803375
:102AE8001360B5E7734B1A6842F480221A601A68BB
:102AF80042F480321A60ABE700F03CFE05466D4BAD
:102B08001B6813F4003FC3D000F034FE401B642858
:102B1800F5D9032039E1674B5B6813F4800FC6D100
:102B2800644B1B6813F0020F03D0E368012B40F0DD
:102B38002981604A136823F0F803216943EAC10335
:102B48001360236813F0080F40D0636963B35B4BCD
:102B580001221A6000F00EFE0546564B5B6F13F01B
:102B6800020F33D100F006FE401B0228F5D90320DE
:102B78000BE1504A136823F0F803216943EAC103C3
:102B88001360DEE74C4B00221A6000F0F3FD0546A7
:102B9800484B1B6813F0020FD3D000F0EBFD401B2D
:102BA8000228F5D90320F0E0444B00221A6000F017
:102BB800E1FD05463F4B5B6F13F0020F06D000F0B6
:102BC800D9FD401B0228F5D90320DEE0236813F065
:102BD800040F78D0374B1B6C13F0805F33D1002380
:102BE8000193344B1A6C42F080521A641B6C03F048
:102BF80080530193019B0125314B1B6813F4807F9F
:102C080023D0A368012B34D0052B38D0294B1A6F59
:102C180022F001021A671A6F22F004021A67A368E9
:102C2800002B36D000F0A6FD0646224B1B6F13F092
:102C3800020F47D100F09EFD801B41F28833984275
:102C4800F3D90320A1E00025D6E71D4A136843F411
:102C58008073136000F08EFD0646194B1B6813F451
:102C6800807FCED100F086FD801B0228F5D9032095
:102C78008BE0104A136F43F001031367CFE70D4B46
:102C88001A6F42F004021A671A6F42F001021A67BB
:102C9800C5E700F06FFD0646064B1B6F13F0020FE9
:102CA80010D000F067FD801B41F288339842F3D9B9
:102CB80003206AE00038024000004742800E474285
:102CC80000700040E5B9A369002B5DD0314A9268D5
:102CD80002F00C02082A5AD0022B17D02E4B0022E1
:102CE8001A6000F047FD04462A4B1B6813F0007F6A
:102CF80042D000F03FFD001B0228F5D9032044E034
:102D0800244A136C23F080531364DCE7224B00221F
:102D18001A6000F02FFD05461E4B1B6813F0007F5C
:102D280006D000F027FD401B0228F5D903202CE02F
:102D3800E369226A1343626A43EA8213A26A520869
:102D4800013A43EA0243E26A43EA0263114A5360E2
:102D5800114B01221A6000F00DFD04460D4B1B6853
:102D680013F0007F06D100F005FD001B0228F5D9FD
:102D780003200AE0002008E0002006E00120704758
:102D8800012002E0012000E0002002B070BD012017
:102D9800FBE700BF0038024060004742314B9B68A8
:102DA80003F00C03042B58D0082B58D170B52D4BC9
:102DB8005A6802F03F025B6813F4800F2AD0294B4F
:102DC8005868C0F388100546002643011B1A66EBB5
:102DD8000604A10141EA93619801C01A61EB04015C
:102DE800CB0043EA5073C4001946601946EB010151
:102DF8004B0243EAD0534402204619463346FDF7B6
:102E0800DFF9184B5B68C3F3014301335B00B0FB88
:102E1800F3F070BD134B5868C0F3881005460026C0
:102E280043011B1A66EB0604A10141EA936198016C
:102E3800C01A61EB0401CB0043EA5073C400194681
:102E4800601946EB01018B0243EA90538402204645
:102E580019463346FDF7B4F9D3E7034870470348EA
:102E6800704700BF0038024000127A000024F400C6
:102E7800002800F09A8070B50446504B1B6803F098
:102E88000F038B4208D2CBB24C4A1370136803F07D
:102E98000F038B4240F08B80236813F0020F17D08A
:102EA80013F0040F04D0464A936843F4E053936048
:102EB800236813F0080F04D0414A936843F4604331
:102EC80093603F4A936823F0F003A068034393603C
:102ED8000D46236813F0010F32D06368012B21D00F
:102EE8009A1E012A25D9364A126812F0020F60D0BC
:102EF80033498A6822F0030213438B6000F03AFCDE
:102F080006462F4B9B6803F00C036268B3EB820FF5
:102F180016D000F02FFC801B41F288339842F0D97C
:102F2800032041E0264A126812F4003FE0D1012054
:102F38003AE0234A126812F0007FD9D1012033E029
:102F48001E4B1B6803F00F03AB4207D9EAB21B4BB9
:102F58001A701B6803F00F03AB422CD1236813F0DF
:102F6800040F06D0164A936823F4E053E1680B4334
:102F78009360236813F0080F07D0114A936823F46D
:102F88006043216943EAC1039360FFF707FF0C4BD5
:102F98009B68C3F303130B4AD35CD8400A4B1860F1
:102FA800002000F09BFB002070BD0120704701202D
:102FB800FAE70120F8E70120F6E700BF003C0240ED
:102FC80000380240DC4D0008A8000020014B1868BA
:102FD800704700BFA800002008B5FFF7F7FF044BB3
:102FE8009B68C3F38223034AD35CD84008BD00BF63
:102FF80000380240EC4D000808B5FFF7E7FF044B26
:103008009B68C3F34233034AD35CD84008BD00BF72
:1030180000380240EC4D000800230F2B00F2D68048
:10302800F0B482B039E0072200E00022B2403A430F
:103038000235674E46F82520664A1568E24302EADB
:1030480005064F6817F4803F01D044EA0506614D34
:103058002E606D6802EA05064F6817F4003F01D03C
:1030680044EA05065B4D6E60AD6802EA05064F68E6
:1030780017F4801F01D044EA0506564DAE60ED688E
:103088002A404E6816F4001F01D044EA0502514C4C
:10309800E26001330F2B00F2968001229A400C68FF
:1030A8001440A242F5D14D68022D01D0122D10D145
:1030B800DE08083650F826C003F00705AF000F25D4
:1030C800BD402CEA050C0D69BD4045EA0C0540F8E9
:1030D800265006685F000325BD40ED4305EA060C4F
:1030E8004E6806F00306BE4046EA0C0606604E68C7
:1030F80006F1FF3CBCF1010F03D9112E01D0122EAD
:1031080010D1866805EA060CCE68BE4046EA0C0671
:103118008660466826EA02024E68C6F300169E409C
:1031280016434660C26815408A68BA402A43C2609E
:103138004A6812F0805FACD000220192264A556C92
:1031480045F480455564526C02F480420192019A1C
:103158009D08AE1C1E4A52F8267003F00302960022
:103168000F22B24027EA02071C4A90423FF45DAFA3
:1031780002F5806290421AD002F58062904218D01F
:1031880002F58062904216D002F58062904214D017
:1031980002F58062904212D002F58062904210D00F
:1031A80002F5806290423FF43EAF08223EE70122DA
:1031B8003CE702223AE7032238E7042236E70522F1
:1031C80034E7062232E702B0F0BC7047704700BF10
:1031D80000380140003C0140003802400000024035
:1031E8000AB18161704709048161704730B405688C
:1031F8002C6824F480242C60046863608368402B66
:1032080005D0036899600368DA6030BC70470368CA
:103218009A600368D960F8E710B40368D9B2103926
:103228000C4AA2FB014212090B4CA25CC2655F2941
:1032380009D923F47F7323F0030304338365806D76
:103248005DF8044B704723F47F7323F00303836511
:10325800F5E700BFABAAAAAAD44D0008836A826921
:1032680092B9012B0AD01BB1022B01D00020704764
:10327800C36A13F0807F28D100207047C36AB3F176
:10328800C07F24D000207047B2F5005F09D0022B20
:1032980025D9032B25D1C36A13F0807F23D10020C1
:1032A8007047032B03D8DFE803F01404140A002046
:1032B8007047C36A13F0807F0DD100207047C36A3E
:1032C800B3F1C07F09D0002070470120704701206A
:1032D8007047012070470120704701207047012086
:1032E80070470020704701207047000070B5044601
:1032F80000F040FA002C5BD00546002384F83430F7
:10330800022384F835302268136823F00103136020
:1033180023681A6812F0010F0AD000F02BFA401B3C
:103328000528F5D920236365032084F8350070BD8E
:103338001A68204810406168A2680A43E1680A4395
:1033480021690A4361690A43A1690A43E1690A4399
:10335800216A0A430243616A04291ED01A6026685A
:10336800756925F00705636A1D43042B07D1A36A15
:103378001D43E36A1BB12046FFF770FF90B97561E2
:103388002046FFF749FFE26D3F239340836000200A
:103398006065012384F83530C9E7E16A206B014391
:1033A8000A43DBE740236365012084F83500BEE764
:1033B8000120BCE73F8010F038B5856D90F83440A7
:1033C800012C31D0012480F8344090F83540E4B223
:1033D800012C04D0002380F83430022038BD044684
:1033E800022084F83500002060652046FFF7FEFEC5
:1033F800E26D3F239340AB602268136843F01603E5
:1034080013602268536943F080035361236C23B12E
:103418002268136843F0080313602268136843F0B6
:10342800010313600020D9E70220D7E7F0B583B085
:10343800044600230193724B1D68724BA3FB0535AC
:10344800AD0A876D3E68C26D08239340334210D0A1
:1034580003681A6812F0040F0BD01A6822F00402ED
:103468001A60C26D08239340BB60436D43F00103AB
:103478004365E26D01239340334209D022685269C3
:1034880012F0800F04D0BB60636D43F002036365E4
:10349800E26D04239340334209D02268126812F087
:1034A800020F04D0BB60636D43F004036365E26DF3
:1034B80010239340334224D02268126812F0080F78
:1034C8001FD0BB6023681A6812F4802F0DD01B68C8
:1034D80013F4002F04D1236C9BB12046984710E0C9
:1034E800A36C73B1204698470BE01A6812F4807FEA
:1034F80003D11A6822F008021A60236C0BB1204627
:103508009847E26D20239340334255D022681268D1
:1035180012F0100F50D0BB6094F83530DBB2052B99
:103528000ED023681A6812F4802F33D01B6813F466
:10353800002F2AD1636C002B3ED0204698473BE0F1
:103548002268136823F0160313602268536923F076
:1035580080035361236CA3B12268136823F0080326
:103568001360E26D3F239340BB60002384F834303E
:10357800012384F83530236D002B3FD0204698472F
:103588003CE0A36C002BE7D1EBE7E36BA3B120464B
:10359800984711E01A6812F4807F09D11A6822F05E
:1035A80010021A60002384F83430012384F835307F
:1035B800E36B0BB120469847636DFBB1636D13F065
:1035C800010F17D0052384F835302268136823F0DB
:1035D80001031360019B01330193AB4204D82368B4
:1035E8001B6813F0010FF5D1002384F83430012350
:1035F80084F83530E36C0BB12046984703B0F0BD32
:10360800A8000020B5814E1B074AD36823F4E06365
:103618001B041B0C000200F4E060184340F0BF607C
:1036280040F40030D060704700ED00E030B4174B34
:10363800DB68C3F30223C3F10704042C28BF042466
:103648001D1D062D01D9033B00E000234FF0FF3577
:1036580005FA04F421EA0401994005FA03F322EA81
:1036680003031943002809DB0901C9B200F16040CE
:1036780000F5614080F8001330BC704700F00F007F
:103688000901C9B2024B1954F6E700BF00ED00E08A
:1036980014ED00E0002807DB00F01F0240090123B9
:1036A8009340024A42F82030704700BF00E100E032
:1036B8000138B0F1807F0AD2064B5860064AF021E3
:1036C80082F823100020986007221A6070470120B2
:1036D800704700BF10E000E000ED00E010B50446C0
:1036E8000E4B18784FF47A73B3FBF0F30C4A10685A
:1036F800B0FBF3F0FFF7DCFF68B90F2C01D901200C
:103708000AE0002221464FF0FF30FFF78FFF054BFC
:103718001C60002000E0012010BD00BFA2000020B6
:10372800A8000020A400002008B50B4B1A6842F43A
:1037380000721A601A6842F480621A601A6842F4C9
:1037480080721A600320FFF75FFF0020FFF7C6FFB3
:10375800FDF7CAFF002008BD003C0240034A11687B
:10376800034B1B780B441360704700BFC404002050
:10377800A2000020014B1868704700BFC404002055
:103788000F49D1F8883043F47003C1F888300D4BE5
:103798001A6842F001021A60002098601A6822F044
:1037A800847222F480321A60074A5A601A6822F436
:1037B80080221A60D8604FF000638B60704700BFAA
:1037C80000ED00E00038024010300024DFF834D06B
:1037D800002103E00C4B5B58435004310B480C4B61
:1037E80042189A42F6D30B4A02E0002342F8043BFF
:1037F800094B9A42F9D3FFF7C3FF00F011F8FDF720
:10380800EDF8704700000220D451000800000020A5
:10381800AC000020AC000020C8040020FEE7000037
:1038280070B50D4D0D4C641BA4100026A64209D19D
:103838000B4D0C4C00F0BCFE641BA4100026A642E5
:1038480005D170BD55F8043B98470136EEE755F8A9
:10385800043B98470136F2E7CC510008CC510008E8
:10386800CC510008D051000802440346934200D1CD
:10387800704703F8011BF9E700B510EE103A204A2B
:1038880023F00043934283B019DDB3F1FF4F04DB0B
:1038980030EE400A03B05DF804FB684600F07EF89D
:1038A80000F00300012811D002281FD0B8B1DDEDC7
:1038B800010A9DED000A012000F072FDEAE7DFED44
:1038C800110A00F0B5F903B05DF804FBDDED010A5B
:1038D8009DED000A00F064FDB1EE400ADAE7DDED87
:1038E800010A9DED000A00F0A3F9D3E7DDED010A16
:1038F8009DED000A00F09CF9B1EE400ACAE700BF4E
:10390800D80F493F0000000000B510EE103A214AD8
:1039180023F00043934283B01ADDB3F1FF4F04DB79
:1039280030EE400A03B05DF804FB684600F036F854
:1039380000F00300012813D0022820D0B8B1DDED33
:10394800010A9DED000A00F073F9B1EE400AE9E7BB
:10395800DFED110A002000F023FD03B05DF804FB41
:10396800DDED010A9DED000A00F062F9DAE7DDED10
:10397800010A9DED000A012000F012FDD2E7DDEDFD
:10398800010A9DED000A012000F00AFDB1EE400A8F
:10399800C8E700BFD80F493F0000000070B510EE1F
:1039A800103A954A23F00044944286B0054668DDF3
:1039B800924A944210EE106A1ADC002BDFED907ADE
:1039C800904A24F00F0440F3F180944270EE677A35
:1039D80066D09FED8D7A77EEC76A012077EEE67A9A
:1039E800C5ED006A77EEC77AC5ED017A06B070BDFD
:1039F800864A944267DDB4F1FF4F49DAE215863A08
:103A0800A4EBC25307EE903ABDEEE77ADFED806A89
:103A1800B8EEC77A77EEC77A8DED037A67EEA67AA5
:103A2800BDEEE77AB8EEC77A77EEC77A8DED047AFD
:103A380067EEA67AF5EE407AF1EE10FACDED057A4A
:103A480040F0A380B5EE407AF1EE10FA14BF0223DD
:103A58000123704901910221009103A8294600F031
:103A680069F9002EC2DA95ED007AD5ED017AB1EE4A
:103A7800477AF1EE677A404285ED007AC5ED017A22
:103A8800B4E7002285ED000A4260002006B070BD50
:103A980070EE407A0020C5ED017AC5ED007AA5E701
:103AA800DFED5D6A9FED5D7A77EEE67A012077EECD
:103AB800C76A77EEE67AC5ED006A77EEC77AC5ED94
:103AC800017A06B070BD00F0B3FCDFED556A9FEDDA
:103AD8004C6A9FED4D7AF6EE007AE0EE267AFDEE1E
:103AE800E77A17EE900AF8EEE76A1F28A6EEC60AEC
:103AF80066EE877AB1EE666A1EDC4A4A411E24F0F9
:103B0800FF0352F82120934216D030EE677A85EDF4
:103B1800007A30EE470A002E30EE670A85ED010A7A
:103B2800BFF664AFB1EE477AB1EE400A85ED007A90
:103B380085ED010A404259E730EE677AE21517EE43
:103B4800103AC3F3C753C3EBD454082CDFDDDFEDC1
:103B5800327A9FED327AF0EE405AE6EE275A30EE8E
:103B6800650AA6EE270AF0EE407AD6EE877A35EE99
:103B7800E77A17EE103AC3F3C753D21A192A06DCAC
:103B880085ED007AB0EE650AC3E7032361E79FED90
:103B9800267A9FED265AB0EE650AA6EE070A75EE5C
:103BA800C07AE6EE077AD6EE857AAEE7944270EEF2
:103BB800277A0ED09FED147A77EE876A4FF0FF30A0
:103BC80077EEE67AC5ED006A77EE877AC5ED017A79
:103BD8000CE7DFED116A9FED117A77EEA67A4FF0C8
:103BE800FF3077EE876A77EEE67AC5ED006A77EE02
:103BF800877AC5ED017AF9E6D80F493FE3CB16403D
:103C0800800FC93FD00FC93F43443537800F494320
:103C180000008043744E00080044353708A3852E01
:103C280084F9223FF44D000800A3852E32318D24FB
:103C380010EE103A23F00043B3F1485F2CDAFDEEA2
:103C4800C07A17EE903A002B60D020EE007ADFEDB4
:103C5800314A9FED315ADFED315A9FED316ADFED80
:103C6800317ADFED316AA7EE245AE7EE055AA7EE5E
:103C7800256AE7EE067AE7EE276A67EE266A60EEBF
:103C8800C00AF6EE007AE7EE260AB7EE000AD7EE8B
:103C9800270A30EE600A704720EE007ADFED1D4AF1
:103CA8009FED1D5ADFED1D5A9FED1D6ADFED1D7A50
:103CB800DFED1D6A1D4AA7EE245A9342E5EE075A26
:103CC800A5EE876AE6EE077AE7EE876A66EE876A08
:103CD800D5DD174A934214DC03F17F4307EE903A8F
:103CE800B7EE006A36EE676A60EEC00AF6EE005A72
:103CF800E7EE260AD7EE257A77EEE00A36EE600A76
:103D08007047B6EE076AF5EE027AEDE7B7EE000AFD
:103D1800704700BF4ED747ADF6740F317CF293B4AD
:103D2800010DD037610BB6BAABAA2A3D9999993ED5
:103D38000000483F2DE9F04F2DED048BDBB0D74C48
:103D4800689D0791111D54F82560049309928346D4
:103D580003F1FF39C0F29D82D31E44BF13460433DA
:103D6800DB1003930133DB000893DDE908239B1A7A
:103D78000693039B16EB0901A3EB090316D4013143
:103D88009FEDC77A699819441EAA002BA4BF50F862
:103D9800234007EE904A03F10103ACBFF8EEE77A3F
:103DA800F0EE477A8B42E2EC017AEED1002EC0F2B7
:103DB800E082049B1EA901EB830446AD4FEA830C05
:103DC8004846F7180BEB8301B9F1000FDFEDB47A21
:103DD80009DB22465B46F3EC016A32ED017A8B423D
:103DE800E6EE877AF7D10130B842E5EC017A04F1C2
:103DF8000404E9D10DF1280808EB8603083B059374
:103E08009FEDA99ADFEDA78A0698009609AB03EB08
:103E1800860A0BEB0C0446AF5B465AAA02EB8602F5
:103E2800002E12ED140A4FEA860B16DD07EB860208
:103E3800414660EE097AB0EE407AFDEEE77A72ED1F
:103E4800016AF8EEE77ABA42A7EEE87A37EEA60AF0
:103E5800BDEEC77AA1EC017AEBD1CDE9010300F000
:103E680035FBB0EE408AB4EE000A28EE000A00F0F6
:103E7800E7FAF2EE007AA0EE678A0198029BFDEE5F
:103E8800C89A0028F8EEE97A38EE678A78DD06F1F4
:103E9800FF3CC0F1080258F82C5045FA02F101FA2B
:103EA80002F2AA1A48F82C20C0F1070519EE90CAA8
:103EB80042FA05F58C44002D09EE90CA68DCB5EE8F
:103EC800408AF1EE10FA40F0B680009A06F1FF3E03
:103ED800724510DC06F18042013A08EB82020021AB
:103EE8009C4652F80439524541EA0301F9D1634628
:103EF800002940F0F280009A013A58F82220002A5E
:103F080040F0E680059A4FF0010C52F804190CF1C4
:103F1800010C0029F9D006F1010BB444DE460499DE
:103F2800039A8D195A441EA902F1804201EB8505B6
:103F38006999013A01EB820607EB8B0BD6ED017A02
:103F48009FED577AF8EEE77AB9F1000F06F104060B
:103F58002946C5ED007A05F1040509DB1A4601E09A
:103F680071ED017AF2EC016AA242A6EEA77AF7D1C6
:103F78000EF1010EE645ABEC017ADFDD66464CE753
:103F880040F09C80721E58F822502D12002D96DDAC
:103F980019EE902A002E02F1010209EE902A40F350
:103FA8008E81D8F80010002974D1012E1CD0424609
:103FB8004FF0010C52F8041F002979D00CF10102CE
:103FC800C1F58071964248F82C100CDD58F8221083
:103FD800C34408EB820200E01168C1F1FF0142F816
:103FE800041B5A45F8D1012100280CDD012800F0F6
:103FF8004781022807D106F1FF3C58F82C2002F02F
:104008003F0248F82C20022D7FF459AFB7EE000A82
:1040180030EE488A00293FF452AFCDE9010300F0A1
:1040280055FA38EE408ADDE90103B5EE408AF1EE33
:1040380010FA3FF44AAFDDE90832B0EE480A981AA0
:1040480002960195009E00F041FA9FED167AB4EEB3
:10405800C70AF1EE10FADDE90123C0F25781DFED5E
:10406800127A069960EE277A0831FDEEE77A069112
:10407800F8EEE77A5D1CA7EEC70AFDEEE77ABDEE1B
:10408800C00A10EE101A48F8231017EE903A48F8B4
:10409800253039E001224FF0000C91E7B8510008B3
:1040A80000000000000080430000803B0000C93F82
:1040B8000CF1010CB4457FF47DAF95E7F6EE007A7C
:1040C800B4EEE78AF1EE10FA80F2E8800025F6E611
:1040D80006F1010BDE46DC4621E7069858F82E105B
:1040E800083833462A46009E0690754661B903F1A2
:1040F8008043023B08EB8303014653F80409013D62
:1041080008390028F9D0069106980092B7EE000AFF
:1041180000F0DCF9002D009AC0F21E814FEA850EEE
:1041280046AB03EB0E070EF1040C1FED217A08EBEA
:104138000C03391D73ED017AF8EEE77A434567EE13
:10414800807A20EE070A61ED017AF3D1002E1FED87
:10415800296A4FF0000420DB8F48DFED907A39465A
:10416800B0EE467A002303E09C4208DBB0EC017A0B
:10417800F1EC016A01339E42E6EE877AF4DA5AAB33
:1041880003EB8403A54243ED287AA7F1040704F161
:10419800010305D0002E1C46DEDADFED807AEEE75B
:1041A800689902291CDC002900F38B800FD132ABFF
:1041B800DFED7A7A9C443CED017A634577EE877AA5
:1041C800F9D10AB1F1EE677A079BC3ED007A19EECF
:1041D800903A03F007005BB0BDEC048BBDE8F08FAC
:1041E800689B032BF3D1002D00F0CB805AAB7344AE
:1041F80032A913ED287A01EB850373ED017AF0EE0D
:10420800476A37EE277A994277EEC77A83ED007AC4
:1042180077EEA67AC3ED017AEFD1012D40F3B18094
:1042280005F180455AAB013D9E44AD002B1D1EEDA6
:10423800287A0B4433A873ED017AF0EE476A37EE1B
:10424800277A984277EEC77A83ED007A77EEA67AD6
:10425800C3ED017AEFD10835DFED507A4B190831FB
:1042680033ED017A994277EE877AF9D1002A55D150
:104278000799329A339BC1ED027A0A604B60A6E730
:1042880006F1FF3C58F82C2002F07F0248F82C2059
:10429800B9E6082308930023039366E519EE902AEC
:1042A800002E02F1010209EE902AC8BF02253FF74D
:1042B80078AEF7EE007A37EEC88A0225FFE50021CE
:1042C80092E632A9DFED357A01EB830333ED017A0B
:1042D800994277EE877AF9D192BB9DED327A079BA6
:1042E800002DC3ED007A77EE677A0BDD33A9012341
:1042F800B1EC017A01339D4277EE877AF8DA0AB198
:10430800F1EE677A079BC3ED017A60E7BDEEC00A5C
:104318001D4610EE101A48F82310F5E6DDED326A56
:104328009DED337A079BF1EE677AF1EE666AB1EE9E
:10433800477AC3ED027AC3ED006A83ED017A46E756
:10434800DDED326A079BB1EE677A002D76EEE77AEB
:1043580083ED007ACADCD3E7689B022B0DDC002BC7
:1043680014DC7FF434AFDFED0D7A002A3FF42CAF74
:1043780028E7049B4FEA830C3CE5689B032B7FF4FA
:1043880026AFDFED067A002AC8D171E7DFED037AA0
:10439800002AA2D0D4E700BF905100080000000016
:1043A80010EE103A23F00043B3F1485F04DAFDEE53
:1043B800C07A17EE903A5BB360EE007A9FED155A1B
:1043C800DFED155A9FED156ADFED156A9FED157A39
:1043D800E7EE855A20EE275AA5EEA76AE6EE276A89
:1043E800A6EEA77A30B9DFED106AE7EE876AA6EE87
:1043F800850A704727EE457AF6EE006AA0EEA67A9F
:10440800DFED0A6AD7EE270AE5EE260A30EE600AE3
:10441800704700BFD3C92E2F342FD7B21BEF3836C1
:10442800010D50B98988083CABAA2ABEABAA2A3E1E
:1044380010EE103A23F0004300EE103A704700BF28
:1044480010EE102AC2F3C7537F3B162B22F000410F
:104458001ADC002B1EDB1A4919410A4227D0DFED6E
:10446800197A70EE277AF5EEC07AF1EE10FA1EDDB1
:10447800002A04DA4FF4000040FA03F31A4422EA4F
:10448800010300EE103A7047B1F1FF4F0FD330EE41
:10449800000A7047DFED0B7A70EE277AF5EEC07AE6
:1044A800F1EE10FA03DD002A02DB9FED070A7047E0
:1044B8000029FFEE007A18BFB0EE670A704700BF08
:1044C800FFFF7F00CAF249710000000082B08DED45
:1044D800010A019B33F000422AD0B2F1FF4F23D2E8
:1044E80013F0FF4F28D19DED017ADFED2A7A2A4B90
:1044F80067EE277A9842CDED017A37DB019BC3F34B
:10450800C752193A0244FE2A1ADD9FED240A9FED8C
:10451800247A019B002BF0EE407AB8BFB0EE470A30
:1045280020EE270A02B0704730EE000A02B070474A
:104538009DED010A02B07047D20D0244FE2AE4DC68
:10454800002A0BDC12F1160F17DA4CF2503398429E
:10455800DBDC9FED140A9FED147ADAE723F0FF43C2
:1045680043EAC25300EE103A02B070479FED0D0ABD
:10457800DDED017A27EE800AD8E7193223F0FF43F0
:1045880043EAC253DFED097A07EE103A27EE270A0D
:10459800CCE700BF0000004CB03CFFFFCAF24971F5
:1045A800CAF249F16042A20D6042A28D00000033B8
:1045B800F8B500BFF8BC08BC9E467047F8B500BF08
:0845C800F8BC08BC9E467047D8
:1045D00000000000920E493CB10AC93C2BC3163DB5
:1045E0002EFB483D752B7B3D04A9963D80B6AF3D23
:1045F00036BDC83D2FBCE13D73B2FA3D87CF093EC1
:104600008340163EB5AB223EA2102F3ECF6E3B3EFE
:10461000C2C5473E0115543E135C603E7F9A6C3E16
:10462000CCCF783EC07D823E938E883E229A8E3ECD
:1046300032A0943E86A09A3EE59AA03E128FA63EF6
:10464000D47CAC3EEF63B23E2A44B83E491DBE3E28
:1046500015EFC33E53B9C93ECA7BCF3E4136D53E66
:1046600080E8DA3E4F92E03E7533E63EBBCBEB3E50
:10467000EA5AF13ECBE0F63E275DFC3EE4E7003F20
:104680003D9C033F824B063F9BF5083F6B9A0B3FD7
:10469000DA390E3FCDD3103F2A68133FD9F6153FC4
:1046A000C07F183FC6021B3FD17F1D3FCBF61F3F87
:1046B0009967223F25D2243F5636273F1594293F3C
:1046C0004AEB2B3FDE3B2E3FBB85303FC9C8323F14
:1046D000F304353F233A373F4268393F3B8F3B3F36
:1046E000F9AE3D3F67C73F3F70D8413F01E2433FCE
:1046F00003E4453F65DE473F12D1493FF8BB4B3FDE
:10470000029F4D3F207A4F3F3D4D513F4918533F47
:1047100031DB543FE595563F5348583F6AF2593FC5
:104720001A945B3F532D5D3F05BE5E3F2146603FBF
:1047300097C5613F5A3C633F59AA643F880F663F63
:10474000D86B673F3CBF683FA7096A3F0C4B6B3F84
:104750005E836C3F93B26D3F9ED86E3F73F56F3FA3
:104760000809713F5213723F4714733FDD0B743FCA
:104770000BFA743FC6DE753F07BA763FC58B773FAD
:10478000F853783F9812793F9DC7793F02737A3F7B
:10479000BE147B3FCDAC7B3F283B7C3FC9BF7C3FF9
:1047A000AC3A7D3FCCAB7D3F23137E3FB0707E3F64
:1047B0006DC47E3F580E7F3F6D4E7F3FAB847F3F81
:1047C0000FB17F3F97D37F3F43EC7F3F11FB7F3F8C
:1047D0000000803F11FB7F3F43EC7F3F97D37F3F3B
:1047E0000FB17F3FAB847F3F6D4E7F3F580E7F3FC1
:1047F0006DC47E3FB0707E3F23137E3FCCAB7D3FC8
:10480000AC3A7D3FC9BF7C3F283B7C3FCDAC7B3F72
:10481000BE147B3F02737A3F9DC7793F9812793F60
:10482000F853783FC58B773F07BA763FC6DE753FB2
:104830000BFA743FDD0B743F4714733F5213723F02
:104840000809713F73F56F3F9ED86E3F93B26D3F7D
:104850005E836C3F0C4B6B3FA7096A3F3CBF683FD0
:10486000D86B673F880F663F59AA643F5A3C633F45
:1048700097C5613F2146603F05BE5E3F532D5D3FBA
:104880001A945B3F6AF2593F5348583FE595563FAB
:1048900031DB543F4918533F3D4D513F207A4F3F44
:1048A000029F4D3FF8BB4B3F12D1493F65DE473F6A
:1048B00003E4453F01E2433F70D8413F67C73F3FB4
:1048C000F9AE3D3F3B8F3B3F4268393F233A373F8C
:1048D000F304353FC9C8323FBB85303FDE3B2E3F36
:1048E0004AEB2B3F1594293F5636273F25D2243FCC
:1048F0009967223FCBF61F3FD17F1D3FC6021B3F6A
:10490000C07F183FD9F6153F2A68133FCDD3103F1B
:10491000DA390E3F6B9A0B3F9BF5083F824B063FFF
:104920003D9C033FE4E7003F275DFC3ECBE0F63EC5
:10493000EA5AF13EBBCBEB3E7533E63E4F92E03E8A
:1049400080E8DA3E4136D53ECA7BCF3E53B9C93EF8
:1049500015EFC33E491DBE3E2A44B83EEF63B23E4A
:10496000D47CAC3E128FA63EE59AA03E86A09A3E2D
:1049700032A0943E229A8E3E938E883EC07D823E27
:10498000CCCF783E7F9A6C3E135C603E0115543E5E
:10499000C2C5473ECF6E3B3EA2102F3EB5AB223E76
:1049A0008340163E87CF093E73B2FA3D2FBCE13DEE
:1049B00036BDC83D80B6AF3D04A9963D752B7B3D05
:1049C0002EFB483D2BC3163DB10AC93C920E493C13
:1049D00000000000920E49BCB10AC9BC2BC316BD31
:1049E0002EFB48BD752B7BBD04A996BD80B6AFBD1F
:1049F00036BDC8BD2FBCE1BD73B2FABD87CF09BEBD
:104A0000834016BEB5AB22BEA2102FBECF6E3BBEFA
:104A1000C2C547BE011554BE135C60BE7F9A6CBE12
:104A2000CCCF78BEC07D82BE938E88BE229A8EBEC9
:104A300032A094BE86A09ABEE59AA0BE128FA6BEF2
:104A4000D47CACBEEF63B2BE2A44B8BE491DBEBE24
:104A500015EFC3BE53B9C9BECA7BCFBE4136D5BE62
:104A600080E8DABE4F92E0BE7533E6BEBBCBEBBE4C
:104A7000EA5AF1BECBE0F6BE275DFCBEE4E700BF1C
:104A80003D9C03BF824B06BF9BF508BF6B9A0BBFD3
:104A9000DA390EBFCDD310BF2A6813BFD9F615BFC0
:104AA000C07F18BFC6021BBFD17F1DBFCBF61FBF83
:104AB000996722BF25D224BF563627BF159429BF38
:104AC0004AEB2BBFDE3B2EBFBB8530BFC9C832BF10
:104AD000F30435BF233A37BF426839BF3B8F3BBF32
:104AE000F9AE3DBF67C73FBF70D841BF01E243BFCA
:104AF00003E445BF65DE47BF12D149BFF8BB4BBFDA
:104B0000029F4DBF207A4FBF3D4D51BF491853BF43
:104B100031DB54BFE59556BF534858BF6AF259BFC1
:104B20001A945BBF532D5DBF05BE5EBF214660BFBB
:104B300097C561BF5A3C63BF59AA64BF880F66BF5F
:104B4000D86B67BF3CBF68BFA7096ABF0C4B6BBF80
:104B50005E836CBF93B26DBF9ED86EBF73F56FBF9F
:104B6000080971BF521372BF471473BFDD0B74BFC6
:104B70000BFA74BFC6DE75BF07BA76BFC58B77BFA9
:104B8000F85378BF981279BF9DC779BF02737ABF77
:104B9000BE147BBFCDAC7BBF283B7CBFC9BF7CBFF5
:104BA000AC3A7DBFCCAB7DBF23137EBFB0707EBF60
:104BB0006DC47EBF580E7FBF6D4E7FBFAB847FBF7D
:104BC0000FB17FBF97D37FBF43EC7FBF11FB7FBF88
:104BD000000080BF11FB7FBF43EC7FBF97D37FBF37
:104BE0000FB17FBFAB847FBF6D4E7FBF580E7FBFBD
:104BF0006DC47EBFB0707EBF23137EBFCCAB7DBFC4
:104C0000AC3A7DBFC9BF7CBF283B7CBFCDAC7BBF6E
:104C1000BE147BBF02737ABF9DC779BF981279BF5C
:104C2000F85378BFC58B77BF07BA76BFC6DE75BFAE
:104C30000BFA74BFDD0B74BF471473BF521372BFFE
:104C4000080971BF73F56FBF9ED86EBF93B26DBF79
:104C50005E836CBF0C4B6BBFA7096ABF3CBF68BFCC
:104C6000D86B67BF880F66BF59AA64BF5A3C63BF41
:104C700097C561BF214660BF05BE5EBF532D5DBFB6
:104C80001A945BBF6AF259BF534858BFE59556BFA7
:104C900031DB54BF491853BF3D4D51BF207A4FBF40
:104CA000029F4DBFF8BB4BBF12D149BF65DE47BF66
:104CB00003E445BF01E243BF70D841BF67C73FBFB0
:104CC000F9AE3DBF3B8F3BBF426839BF233A37BF88
:104CD000F30435BFC9C832BFBB8530BFDE3B2EBF32
:104CE0004AEB2BBF159429BF563627BF25D224BFC8
:104CF000996722BFCBF61FBFD17F1DBFC6021BBF66
:104D0000C07F18BFD9F615BF2A6813BFCDD310BF17
:104D1000DA390EBF6B9A0BBF9BF508BF824B06BFFB
:104D20003D9C03BFE4E700BF275DFCBECBE0F6BEC1
:104D3000EA5AF1BEBBCBEBBE7533E6BE4F92E0BE86
:104D400080E8DABE4136D5BECA7BCFBE53B9C9BEF4
:104D500015EFC3BE491DBEBE2A44B8BEEF63B2BE46
:104D6000D47CACBE128FA6BEE59AA0BE86A09ABE29
:104D700032A094BE229A8EBE938E88BEC07D82BE23
:104D8000CCCF78BE7F9A6CBE135C60BE011554BE5A
:104D9000C2C547BECF6E3BBEA2102FBEB5AB22BE72
:104DA000834016BE87CF09BE73B2FABD2FBCE1BDEA
:104DB00036BDC8BD80B6AFBD04A996BD752B7BBD01
:104DC0002EFB48BD2BC316BDB10AC9BC920E49BC0F
:104DD00000000080000610160006101600000000FB
:104DE000000000000102030406070809000000009B
:104DF00001020304000FC93F000F494000CB964059
:104E0000000FC9400053FB4000CB164100ED2F417D
:104E1000000F49410031624100537B41003A8A4111
:104E200000CB9641005CA34100EDAF41007EBC4148
:104E3000000FC94100A0D5410031E24100C2EE415E
:104E40000053FB4100F20342003A0A420083104241
:104E500000CB164200141D42005C234200A52942EB
:104E600000ED2F4200363642007E3C4200C74242EF
:104E7000000F4942A2000000F9000000830000007A
:104E80006E0000004E00000044000000150000000D
:104E900029000000FC00000027000000570000006F
:104EA000D1000000F500000034000000DD0000002B
:104EB000C0000000DB000000620000009500000060
:104EC000990000003C00000043000000900000003A
:104ED00041000000FE0000005100000063000000DF
:104EE000AB000000DE000000BB000000C5000000B9
:104EF00061000000B7000000240000006E00000008
:104F00003A000000420000004D000000D200000006
:104F1000E000000006000000490000002E00000034
:104F2000EA00000009000000D1000000920000002B
:104F30001C000000FE0000001D000000EB0000004F
:104F40001C000000B100000029000000A7000000C4
:104F50003E000000E8000000820000003500000074
:104F6000F50000002E000000BB000000440000001F
:104F700084000000E90000009C00000070000000B8
:104F800026000000B40000005F0000007E0000006A
:104F9000410000003900000091000000D600000030
:104FA00039000000830000005300000039000000B9
:104FB000F40000009C000000840000005F0000007E
:104FC0008B000000BD000000F90000002800000078
:104FD0003B0000001F000000F800000097000000E8
:104FE000FF000000DE000000050000009800000047
:104FF0000F000000EF0000002F0000001100000073
:105000008B0000005A0000000A0000006D00000044
:105010001F0000006D000000360000007E00000050
:10502000CF00000027000000CB00000009000000B6
:10503000B70000004F000000460000003F000000E5
:10504000660000009E0000005F000000EA00000013
:105050002D0000007500000027000000BA000000CD
:10506000C7000000EB000000E5000000F1000000B8
:105070007B0000003D000000070000003900000038
:10508000F70000008A0000005200000092000000BB
:10509000EA0000006B000000FB0000005F00000061
:1050A000B10000001F0000008D0000005D00000046
:1050B000080000005600000003000000300000005F
:1050C00046000000FC0000007B0000006B000000B8
:1050D000AB000000F0000000CF000000BC000000AA
:1050E000200000009A000000F400000036000000DC
:1050F0001D000000A9000000E30000009100000076
:10510000610000005E000000E60000001B000000DF
:105110000800000065000000990000008500000004
:105120005F00000014000000A00000006800000004
:10513000400000008D000000FF000000D8000000CB
:10514000800000004D0000007300000027000000F8
:1051500031000000060000000600000015000000FD
:1051600056000000CA00000073000000A800000004
:10517000C900000060000000E20000007B000000A9
:10518000C00000008C0000006B0000000000C93F60
:105190000000F0390000DA370000A2330000842E4E
:1051A0000000502B0000C2270000D0220000C41FC6
:1051B0000000C61B000044170400000007000000A8
:0451C00009000000E2
:0851C40034B0FF7F0100000080
:0451CC00AD01000829
:0451D0008901000849
:1051D4000000C04000000100920A86400000000068
:1051E4000000000000010000920A064000000000D8
:1051F4000000000000010100DB0F49400000000036
:105204000000000001000000000000000000000099
:105214000000000001000100368DA74000000000DE
:105224000000000001010000920A863F0000000017
:105234000000000001010100000000000000000067
:1052440000000000040000201400002024000020BE
:10525400340000204400002054000020627910062D
:10526400000000000000000000000000000000003A
:0C52740000000100100000000024F40005
:04000005080037D5E3
:00000001FF
