:020000040800F2
:1000000000000220F1590008652C0008672C000848
:10001000692C00086B2C00086D2C00080000000003
:100020000000000000000000000000006F2C00082D
:10003000712C000800000000732C0008752C0008CB
:10004000415A0008415A0008415A0008415A000824
:10005000415A0008415A0008415A0008415A000814
:10006000415A0008415A0008415A0008415A000804
:10007000812C0008415A0008912C0008415A0008C0
:10008000415A0008415A0008415A0008415A0008E4
:10009000415A0008415A0008415A0008415A0008D4
:1000A000415A0008415A0008415A0008415A0008C4
:1000B000415A0008415A0008415A0008415A0008B4
:1000C000415A0008415A0008415A0008415A0008A4
:1000D000415A0008415A0008415A0008F12C000812
:1000E000415A0008415A0008415A0008415A000884
:1000F000A12C0008415A0008415A0008415A000842
:10010000415A0008415A0008415A0008415A000863
:10011000415A0008415A0008B12C0008C12C0008BF
:10012000D12C0008415A0008E12C0008415A00086F
:10013000415A00080000000000000000415A000879
:10014000415A0008415A0008415A0008415A000823
:10015000415A0008415A0008415A0008415A000813
:10016000415A0008415A0008415A0008415A000803
:10017000415A0008415A0008000000000000000039
:08018000415A0008415A000831
:1001900010B5054C237833B9044B13B10448AFF3C1
:1001A00000800123237010BD940200200000000095
:1001B000609F000808B5034B1BB103490348AFF328
:1001C000008008BD0000000098020020609F000829
:1001D000034613F8012B002AFBD1181A0138704787
:1001E00001F0FF01102A2BDB10F0070F08D010F8E8
:1001F000013B013A8B422DD010F0070F42B3F6D1EC
:10020000F0B441EA012141EA014122F007047FF004
:1002100000070023F0E80256083C85EA010586EA5B
:10022000010685FA47F5A3FA87F586FA47F6A5FA97
:1002300087F68EB9EED1F0BC01F0FF0102F00702A3
:1002400032B110F8013B013A83EA010313B1F8D14E
:100250000020704701387047002D06BF354603382F
:10026000073815F0010F07D1013015F4807F02BF68
:10027000013015F4C03F0130F0BC0138704700BFB9
:1002800081F0004102E000BF83F0004330B54FEA47
:1002900041044FEA430594EA050F08BF90EA020FB4
:1002A0001FBF54EA000C55EA020C7FEA645C7FEA47
:1002B000655C00F0E2804FEA5454D4EB5555B8BF6A
:1002C0006D420CDD2C4480EA020281EA030382EADB
:1002D000000083EA010180EA020281EA0303362D6D
:1002E00088BF30BD11F0004F4FEA01314FF4801C40
:1002F0004CEA113102D0404261EB410113F0004F52
:100300004FEA03334CEA133302D0524263EB430308
:1003100094EA050F00F0A780A4F10104D5F1200EA6
:100320000DDB02FA0EFC22FA05F2801841F1000101
:1003300003FA0EF2801843FA05F359410EE0A5F1D5
:1003400020050EF1200E012A03FA0EFC28BF4CF006
:10035000020C43FA05F3C01851EBE37101F00045BC
:1003600007D54FF0000EDCF1000C7EEB00006EEBC9
:100370000101B1F5801F1BD3B1F5001F0CD3490853
:100380005FEA30004FEA3C0C04F101044FEA4452AA
:1003900012F5800F80F09A80BCF1004F08BF5FEA31
:1003A000500C50F1000041EB045141EA050130BD11
:1003B0005FEA4C0C404141EB0101013C28BFB1F523
:1003C000801FE9D291F0000F04BF01460020B1FA6E
:1003D00081F308BF2033A3F10B03B3F120020CDA41
:1003E0000C3208DD02F1140CC2F10C0201FA0CF01F
:1003F00021FA02F10CE002F11402D8BFC2F1200C84
:1004000001FA02F120FA0CFCDCBF41EA0C01904039
:10041000E41AA2BF01EB0451294330BD6FEA040482
:100420001F3C1CDA0C340EDC04F11404C4F120026D
:1004300020FA04F001FA02F340EA030021FA04F37F
:1004400045EA030130BDC4F10C04C4F1200220FAD6
:1004500002F001FA04F340EA0300294630BD21FA14
:1004600004F0294630BD94F0000F83F4801306BFDA
:1004700081F480110134013D4EE77FEA645C18BFCE
:100480007FEA655C29D094EA050F08BF90EA020F65
:1004900005D054EA000C04BF1946104630BD91EA5D
:1004A000030F1EBF0021002030BD5FEA545C05D160
:1004B0004000494128BF41F0004130BD14F580049F
:1004C0003CBF01F5801130BD01F0004545F0FE4113
:1004D00041F470014FF0000030BD7FEA645C1ABF48
:1004E000194610467FEA655C1CBF0B46024650EA7F
:1004F000013406BF52EA033591EA030F41F40021AB
:1005000030BD00BF90F0000F04BF0021704730B530
:100510004FF4806404F132044FF000054FF0000105
:1005200050E700BF90F0000F04BF0021704730B5C6
:100530004FF4806404F1320410F0004548BF40429B
:100540004FF000013EE700BF42004FEAE2014FEAF0
:1005500031014FEA02701FBF12F07F4393F07F4FCB
:1005600081F06051704732F07F4208BF704793F0CE
:100570007F4F04BF41F40021704730B54FF46074E1
:1005800001F0004521F000411CE700BF50EA0102E4
:1005900008BF704730B54FF000050AE050EA01028D
:1005A00008BF704730B511F0004502D5404261EBFD
:1005B00041014FF4806404F132045FEA915C3FF43E
:1005C000D8AE4FF003025FEADC0C18BF03325FEADB
:1005D000DC0C18BF033202EBDC02C2F1200300FA8C
:1005E00003FC20FA02F001FA03FE40EA0E0021FAB1
:1005F00002F11444BDE600BF70B54FF0FF0C4CF49F
:10060000E06C1CEA11541DBF1CEA135594EA0C0F50
:1006100095EA0C0F00F0DEF82C4481EA030621EA8B
:100620004C5123EA4C5350EA013518BF52EA0335C6
:1006300041F4801143F4801338D0A0FB02CE4FF078
:100640000005E1FB02E506F00042E0FB03E54FF0A8
:100650000006E1FB03569CF0000F18BF4EF0010EA0
:10066000A4F1FF04B6F5007F64F5407404D25FEA9C
:100670004E0E6D4146EB060642EAC62141EA55514F
:100680004FEAC52040EA5E504FEACE2EB4F1FD0C91
:1006900088BFBCF5E06F1ED8BEF1004F08BF5FEA0F
:1006A000500E50F1000041EB045170BD06F00046C1
:1006B00046EA010140EA020081EA0301B4EB5C046E
:1006C000C2BFD4EB0C0541EA045170BD41F4801166
:1006D0004FF0000E013C00F3AB8014F1360FDEBF8B
:1006E000002001F0004170BDC4F10004203C35DA67
:1006F0000C341BDC04F11404C4F1200500FA05F3EA
:1007000020FA04F001FA05F240EA020001F000428A
:1007100021F0004110EBD37021FA04F642EB060100
:100720005EEA430E08BF20EAD37070BDC4F10C042A
:10073000C4F1200500FA04F320FA05F001FA04F2EE
:1007400040EA020001F0004110EBD37041F10001DA
:100750005EEA430E08BF20EAD37070BDC4F12005E5
:1007600000FA05F24EEA020E20FA04F301FA05F24D
:1007700043EA020321FA04F001F0004121FA04F2F5
:1007800020EA020000EBD3705EEA430E08BF20EAC5
:10079000D37070BD94F0000F0FD101F000464000FF
:1007A00041EB010111F4801F08BF013CF7D041EA81
:1007B000060195F0000F18BF704703F00046520085
:1007C00043EB030313F4801F08BF013DF7D043EA56
:1007D0000603704794EA0C0F0CEA135518BF95EA0C
:1007E0000C0F0CD050EA410618BF52EA4306D1D193
:1007F00081EA030101F000414FF0000070BD50EAB2
:10080000410606BF1046194652EA430619D094EA3B
:100810000C0F02D150EA013613D195EA0C0F05D125
:1008200052EA03361CBF104619460AD181EA030179
:1008300001F0004141F0FE4141F470014FF0000031
:1008400070BD41F0FE4141F4780170BD70B54FF0CC
:10085000FF0C4CF4E06C1CEA11541DBF1CEA13554C
:1008600094EA0C0F95EA0C0F00F0A7F8A4EB05042E
:1008700081EA030E52EA03354FEA013100F0888025
:100880004FEA03334FF0805545EA131343EA1263EE
:100890004FEA022245EA111545EA10654FEA0026A3
:1008A0000EF000419D4208BF964244F1FD0404F55C
:1008B000407402D25B084FEA3202B61A65EB0305B8
:1008C0005B084FEA32024FF480104FF4002CB6EB75
:1008D000020E75EB030E22BFB61A754640EA0C00F5
:1008E0005B084FEA3202B6EB020E75EB030E22BF35
:1008F000B61A754640EA5C005B084FEA3202B6EB76
:10090000020E75EB030E22BFB61A754640EA9C0034
:100910005B084FEA3202B6EB020E75EB030E22BF04
:10092000B61A754640EADC0055EA060E18D04FEAC2
:10093000051545EA16754FEA06164FEAC30343EA62
:1009400052734FEAC2025FEA1C1CC0D111F4801F2F
:100950000BD141EA00014FF000004FF0004CB6E728
:1009600011F4801F04BF01430020B4F1FD0C88BFC7
:10097000BCF5E06F3FF6AFAEB5EB030C04BFB6EBD2
:10098000020C5FEA500C50F1000041EB045170BDC5
:100990000EF0004E4EEA113114EB5C04C2BFD4EBF2
:1009A0000C0541EA045170BD41F480114FF0000E76
:1009B000013C90E645EA060E8DE60CEA135594EAF2
:1009C0000C0F08BF95EA0C0F3FF43BAF94EA0C0FF5
:1009D0000AD150EA01347FF434AF95EA0C0F7FF46A
:1009E00025AF104619462CE795EA0C0F06D152EABE
:1009F00003353FF4FDAE1046194622E750EA4106A2
:100A000018BF52EA43067FF4C5AE50EA41047FF4B2
:100A10000DAF52EA43057FF4EBAE12E74FF0FF3C17
:100A200006E000BF4FF0010C02E000BF4FF0010CE8
:100A30004DF804CD4FEA410C7FEA6C5C4FEA430C61
:100A400018BF7FEA6C5C1BD001B050EA410C0CBFB0
:100A500052EA430C91EA030F02BF90EA020F002012
:100A6000704710F1000F91EA030F58BF994208BF79
:100A700090422CBFD8176FEAE37040F00100704736
:100A80004FEA410C7FEA6C5C02D150EA013C07D18D
:100A90004FEA430C7FEA6C5CD6D152EA033CD3D0D8
:100AA0005DF8040B704700BF8446104662468C46D2
:100AB0001946634600E000BF01B5FFF7B7FF002805
:100AC00048BF10F1000F01BD4DF808EDFFF7F4FF2E
:100AD0000CBF012000205DF808FB00BF4DF808EDB9
:100AE000FFF7EAFF34BF012000205DF808FB00BFDC
:100AF0004DF808EDFFF7E0FF94BF012000205DF8FE
:100B000008FB00BF4DF808EDFFF7CEFF94BF0120B2
:100B100000205DF808FB00BF4DF808EDFFF7C4FFAB
:100B200034BF012000205DF808FB00BF4FEA410CF4
:100B30007FEA6C5C02D150EA013C0AD14FEA430CD7
:100B40007FEA6C5C02D152EA033C02D14FF0000014
:100B500070474FF0010070474FEA410212F5001252
:100B600015D211D56FF47873B3EB625212D94FEAF4
:100B7000C12343F0004343EA505311F0004F23FADE
:100B800002F018BF404270474FF00000704750EA33
:100B9000013005D111F0004008BF6FF000407047F0
:100BA0004FF00000704700BF4A0011D212F500124A
:100BB00011D20DD56FF47873B3EB62520ED44FEAB5
:100BC000C12343F0004343EA505323FA02F0704735
:100BD0004FF00000704750EA013002D14FF0FF3073
:100BE00070474FF0000070474FEA4102B2F1E04316
:100BF00024BFB3F5001CDCF1FE5C0DD901F0004C04
:100C00004FEAC0024CEA5070B2F1004F40EB830053
:100C100008BF20F00100704711F0804F21D113F17F
:100C20003872BCBF01F00040704741F480114FEAB8
:100C30005252C2F11802C2F1200C10FA0CF320FA41
:100C400002F018BF40F001004FEAC1234FEAD3235E
:100C500003FA0CFC40EA0C0023FA02F34FEA4303C8
:100C6000CCE77FEA625307D150EA01331EBF4FF051
:100C7000FE4040F44000704701F0004040F0FE406C
:100C800040F40000704700BF53B94AB9002908BFBB
:100C900000281CBF4FF0FF314FF0FF3000F0A4B927
:100CA000ADF1080C6DE904CE00F03CF8DDF804E08D
:100CB000DDE9022304B0704738B500220023044662
:100CC0000D46FFF70BFF28B920462946BDE83840FE
:100CD00000F00AB8204605F1004100F005F8404256
:100CE00061EB410138BD00BFD0B50C4B0022064678
:100CF0000F46FFF781FCFFF757FF0446FFF702FCA2
:100D0000074B0022FFF778FC02460B463046394677
:100D1000FFF7BAFAFFF748FF2146D0BD0000F03DCB
:100D20000000F0412DE9F047089D04468C46002B59
:100D300040F083808A42174647D9B2FA82F242B124
:100D4000C2F1200024FA00F09140974040EA010CE3
:100D500094404FEA1748230CBCFBF8F61FFA87FEB5
:100D600008FB16C143EA014306FB0EF1994209D97B
:100D7000FB1806F1FF3080F01981994240F216818C
:100D8000023E3B445B1AA4B2B3FBF8F008FB1033FD
:100D900044EA034400FB0EFEA64509D93C1900F1C4
:100DA000FF3380F00581A64540F2028102383C44C1
:100DB00040EA0640A4EB0E0400261DB1D4400023F7
:100DC000C5E900433146BDE8F08702B9FFDEB2FA5B
:100DD00082F2002A50D1CB1B4FEA174E1FFA87F838
:100DE0000126B3FBFEFC210C0EFB1C3341EA034140
:100DF00008FB0CF38B4207D979180CF1FF3002D2B3
:100E00008B4200F2E9808446C91AA3B2B1FBFEF01E
:100E10000EFB101143EA014408FB00F8A04507D976
:100E20003C1900F1FF3302D2A04500F2D9801846E8
:100E3000A4EB080440EA0C40BFE78B4209D9002D1F
:100E400000F0B1800026C5E9000130463146BDE81A
:100E5000F087B3FA83F6002E4AD18B4202D3824246
:100E600000F2B880841A61EB030101208C46002D4A
:100E7000A8D0C5E9004CA5E7C2F1200320FA03F68B
:100E8000974001FA02F04FEA174ED9403043030C65
:100E9000B1FBFEF61FFA87F80EFB161143EA014379
:100EA00006FB08F1994204FA02F409D9FB1806F18D
:100EB000FF3C80F08D80994240F28A80023E3B44A4
:100EC0005B1A81B2B3FBFEF00EFB103341EA034123
:100ED00000FB08F38B4207D9791800F1FF3C73D26D
:100EE0008B4271D902383944CB1A40EA064678E77A
:100EF000C6F1200C03FA06F422FA0CF31C4320FA84
:100F00000CF701FA06F34FEA144E21FA0CF11F43D5
:100F10003B0CB1FBFEF91FFA84F80EFB191143EAF2
:100F2000014109FB08FA8A4502FA06F200FA06F3C3
:100F300008D9611809F1FF3048D28A4546D9A9F18C
:100F400002092144A1EB0A01BFB2B1FBFEF00EFB86
:100F5000101147EA014700FB08F8B84507D9E7191F
:100F600000F1FF312ED2B8452CD90238274440EA8F
:100F70000940A7EB0807A0FB02894F45C646494632
:100F80001AD317D05DB1B3EB0E0267EB010707FA76
:100F90000CFCF2404CEA0202F740C5E900270026AB
:100FA0003146BDE8F0872E4628460BE70646E9E6BF
:100FB0001846FDE64345E5D2B8EB020E69EB0401A5
:100FC0000138DFE70846D2E760468DE78146B9E79A
:100FD000664675E730464AE7ACF1020C394413E740
:100FE00002383C4424E700BF704700BF70B52DEDC8
:100FF000028B0024052C14DC0B4D55F8246096ED73
:10100000018AB0EE480A08F001F986ED020A55F8A7
:101010002450B0EE480A08F041F985ED030A013486
:10102000E8E7BDEC028B70BD8400002010B51A4BC0
:1010300003221A70194B41F26802DA62DA6A023A44
:101040001A64FFF7D3FF164C0021204602F0A8FFD8
:101050000421204602F0A4FF0821204602F0A0FF50
:101060000021204602F0CEFF0421204602F0CAFFF4
:101070000821204602F0C6FF0A4B0B4ADA620B48F1
:1010800002F0D2FC02220A490A4801F025FF20465C
:1010900002F0B8FC10BD00BF0803002000040140AE
:1010A000F4040020001400401F480100B405002093
:1010B0000003002024030020034BA3FB0030400961
:1010C0000130C0B2704700BF8988888830B40D46AF
:1010D0001446013805280CD8DFE800F0030D161F70
:1010E00028311B4B0FCB85E80F001A4B0FCB84E840
:1010F0000F0030BC7047174B0FCB85E80F00164B25
:101100000FCB84E80F00F4E7134B0FCB85E80F00FB
:10111000124B0FCB84E80F00EBE7104B0FCB85E8A9
:101120000F000F4B0FCB84E80F00E2E70C4B0FCB07
:1011300085E80F000B4B0FCB84E80F00D9E7094B74
:101140000FCB85E80F00024B0FCB84E80F00D0E7F0
:10115000440000206400002024000020340000200F
:10116000140000205400002010B48FB004AC84E8B8
:101170000F00F7EE007A77EEC07A77EEE07AB6EEFF
:10118000007A27EE877A344B1A7807EE902AF8EE29
:10119000E77A67EE877A9DF8102006EE902AF8EE3F
:1011A000E66A66EE806A77EEA67A9DF8402006EE43
:1011B000902AF8EEE66A66EEA06A77EEA67ACDEDA2
:1011C000087A5A7807EE902AF8EEE77A67EE877A7F
:1011D0009DF8112006EE902AF8EEE66A66EE806A27
:1011E00077EEA67A9DF8412006EE902AF8EEE66AA0
:1011F00066EEA06A77EEA67ACDED097A9B7807EEC7
:10120000903AF8EEE77A67EE877A9DF8123007EEAB
:10121000103AB8EEC77A27EE000A37EE800A9DF83A
:10122000423007EE903AF8EEE77A67EEA00A70EEE9
:10123000200ACDED0A0A08AB93E807000EAB03E9DC
:1012400007009DED0B0ADDED0C0A9DED0D1A0FB0A8
:101250005DF8044B704700BF7400002084B08DED32
:10126000010ACDED020A8DED031A124BD3ED0B7A74
:10127000F8EE677A27EE811ABCEEC11A83ED0D1ADB
:10128000D3ED0B7AF8EE677A9DED027A67EE877AF6
:10129000FCEEE77AC3ED0E7AD3ED0B7AF8EE677ABF
:1012A0009DED017A67EE877AFCEEE77AC3ED0F7A5F
:1012B00004B070470004014010B584B00446194BD7
:1012C0001A7800EE102A5A7800EE902A9B7801EEE8
:1012D000103AB8EE400AF8EE600AB8EE411AFFF78D
:1012E000BDFF204604F04AFB0F4B1A7800EE102A8F
:1012F0005A7800EE902A9B7801EE103AB8EE400A38
:10130000F8EE600AB8EE411AFFF7A8FF074B18681D
:10131000FFF71AF902460B46054801F085FA04B0BA
:1013200010BD00BF44000020BC0200201C030020B0
:10133000789F0008013805285BD8DFE800F0031229
:101340001F303F4CDFED2B7A60EEA77A30EE670A54
:1013500081ED000ADFED287A60EEA70AC2ED000AEF
:101360007047DFED247A60EEA70A70EE807AC1ED57
:10137000007A70EEC00AC2ED000A7047DFED1E7AF7
:1013800060EEA77AC1ED007AB1EE400ADFED197A7E
:1013900060EEA70A70EE600AC2ED000A7047DFED4A
:1013A000157A60EEA77A37EEC00A81ED000ADFED0C
:1013B000137A60EEA70AC2ED000A7047DFED107ADB
:1013C00060EEA70A70EEC07AC1ED007A70EE200AD6
:1013D000C2ED000A7047DFED097A60EEA77AC1ED31
:1013E000007ADFED047A60EEA77A77EE800AC2ED2C
:1013F000000A704736CD133F36CD933F36CD93BFAD
:1014000036CD13BF70B52DED028B90B0F0EE408A53
:10141000B0EE608AFCEEC07A17EE900AFFF74CFE41
:10142000064608AD0CAC2A462146FFF74FFE07A939
:1014300006A8B0EE680A01F07FFBDFED170A68EE40
:10144000200A9DED070A20EE800A8DED070ADDEDEA
:10145000067A60EEA70ACDED060A04AA05A9304671
:10146000FFF768FF95E80F008DE80F0094E80F0084
:10147000DDED040A9DED050AFFF776FE074B83EDCF
:10148000000AC3ED010A83ED021AFFF7E7FE10B070
:10149000BDEC028B70BD00BFF6285C3FB00200209F
:1014A00080ED000A9FED087A60EE877A30EE200A20
:1014B00020EE070A37EE800AB0EE087AC0EE077A0F
:1014C000C1ED007A704700BFD7B3DD3F08B50368B0
:1014D000174A934203D002F58072934200D008BDB0
:1014E000144B1A8807EE102AB8EEC77ADFED125AAD
:1014F00027EE257A9FED116A27EE067ADFED106A56
:1015000087EE260A9FED0F7A5B8807EE903AF8EE99
:10151000E77A67EEA57A67EE867AC7EEA60A0A49E9
:101520000A48C0EE870A80EE070AFFF7B9FFD6E740
:10153000002001400003002000404E45000080399B
:1015400000004843A69B443B1403002018030020DE
:1015500008B5184BD3ED007A9FED177A77EE677ACE
:10156000164BD3ED006A37EE667A77EEC77AFDEE5A
:10157000E77A17EE903A002B18DB114A127803FB3A
:1015800002F35A330F4A82FB0312D118DA17C2EB67
:1015900021224FF4B47101FB1232F7EE000A07EE7C
:1015A000902AB8EEE70AFFF72DFF08BD03F5B473E4
:1015B000E3E700BF1C0300200000B443100000203C
:1015C00000000020B7600BB608B507EE100A1B4BF1
:1015D0001B7807EE903AF8EEE77A27EE811ADFEDF6
:1015E000186A21EE261A81EE206AF8EEC77A67EEB5
:1015F000867A144B93ED007A77EE877AC3ED007A02
:10160000F4EEE67AF1EE10FA0BDD77EEE67AC3ED52
:10161000007AF0EE400A0B4B93ED000AFFF7F2FE62
:1016200008BDF5EEC07AF1EE10FAF2D59FED047A1E
:1016300077EE877A034BC3ED007AEAE700000020DB
:101640000000B443CC02002010B5224B1A680132CE
:101650001A6093ED017A204BD3ED007AB4EEE77A6D
:10166000F1EE10FA13D51B4A936801339360B2EE82
:10167000041A0120DFED190A9FED190AFFF7A4FFF4
:10168000144B1A6842F210739A4205D810BD114AE1
:101690009368013B9360EAE70023124A13700D4CF4
:1016A0002360A168104801F0A1F8A368002B09DDB0
:1016B0000E4801F09BF80E4B01221A73054B0022D5
:1016C0009A60E3E70B4801F091F8094BFF221A7387
:1016D000F4E700BFF40200201C03002000007A445D
:1016E0009A99993E08030020889F0008A09F00084F
:1016F00000000020CC9F000808B5012000F05CFF2E
:10170000114B83ED000A114B1B78062B07D8DFE83D
:1017100003F01404060706061100FFF719FF08BDC1
:10172000B7EE001A0120DFED0A0AB0EE410AFFF71A
:101730004BFFF4E7FFF788FFF1E79FED060AF0EEB5
:10174000400AFFF75FFEEAE71C03002008030020C1
:1017500000007A440000000008B50268054B9A4278
:1017600000D008BD044B1B78002BFAD0FFF7C4FF54
:10177000F7E700BF00140040D002002030B595B05C
:101780003022002108A804F093F900240394049463
:1017900005940694079401941B4B1A6C42F08052F6
:1017A0001A641B6C03F080530193019B0294174B46
:1017B0001A6842F480421A601B6803F48043029363
:1017C000029B012308934FF48033099302250E9561
:1017D0004FF480030F9304231093A82211921295C3
:1017E000139308A803F0B0F90F230393049505940D
:1017F0004FF4A05306934FF480530793052103A899
:1018000003F0D4FB15B030BD00380240007000403A
:1018100008B504F087F8FFF7B1FF00F073F800F0A7
:1018200085FA00F0D7F800F02BFA00F0BBFA00F0D0
:1018300017FB00F07DFC00F001FD00F041FB00F023
:1018400067FB00F00DF902221146184800F09CFFDA
:10185000B7EE000AFFF7EAFB002000F0D1FE144BC0
:1018600001221A70134800F0DFFF16E001F040F883
:1018700017E0114B00221A70104B9B8801EE103AB2
:101880000F4BD3ED001AB8EE411A0E4BD3ED000A00
:101890000D4B93ED000A00F089FF0C4B1B78002BD9
:1018A000E4D1054B1B78002BF7D0E2E7540600206B
:1018B000D0020020F89F0008200300200003002031
:1018C0001C0300201403002018030020160700202A
:1018D000084B1B782BB1084A136801331360022BA5
:1018E00000D07047134600221A60044B01221A7080
:1018F000F7E700BFD0020020D40200202003002020
:1019000070470000F0B58BB000240594069407944E
:101910000894099401942B4B1A6B42F080021A63CD
:101920001A6B02F080020192019A02941A6B42F043
:1019300004021A631A6B02F004020292029A0394E0
:101940001A6B42F001021A631A6B02F00102039251
:10195000039A04941A6B42F002021A631B6B03F0A1
:1019600002030493049B184D22464FF4007128464D
:1019700003F0D6FC154E22464FF40041304603F0EA
:10198000CFFC08230593124B0693079405A928461C
:1019900003F0E0FB4FF400730593012706970794CB
:1019A000089405A9284603F0D5FB4FF4004305939E
:1019B00006970794089405A9304603F0CBFB0BB0BB
:1019C000F0BD00BF003802400008024000000240A5
:1019D0000000111000B585B000230093019302931D
:1019E00003931D481D4A02604FF4803242608360B9
:1019F00001220261037680F820304FF08051C162ED
:101A00004FF060618162C3600221C16180F83020C3
:101A1000436101F035FAA8B90B2300930123019328
:101A2000029369460C4801F061FB70B903230093EF
:101A3000022301936946084801F058FB40B905B0FC
:101A40005DF804FBFFF75CFFE6E7FFF759FFEDE702
:101A5000FFF756FFF3E700BF6C03002000200140B2
:101A600000B585B0002300930193029303931E48B1
:101A70001E4A02604FF4803242608360012202619C
:101A8000037680F820304FF08051C1624FF06061E2
:101A90008162C3600221C16180F83020436101F09E
:101AA000EFF9B8B90B230093012301930293694620
:101AB0000D4801F01BFB80B90C2300930223019316
:101AC000012302936946084801F010FB40B905B0B4
:101AD0005DF804FBFFF714FFE4E7FFF711FFEBE706
:101AE000FFF70EFFF3E700BF2403002000210140B1
:101AF00070B58CB0044600230793089309930A93AA
:101B00000B930368554A934204D0554A934252D0EE
:101B10000CB070BD00250195524B5A6C42F4807296
:101B20005A645A6C02F480720192019A02951A6BFF
:101B300042F004021A631A6B02F004020292029A43
:101B400003951A6B42F001021A631B6B03F0010349
:101B50000393039B0223079303260896099507A97D
:101B6000414803F0F7FA082307930896099507A957
:101B70003E4803F0EFFA3E483E4B03604560856007
:101B8000C5604FF4806303614FF4006343614FF419
:101B9000005383614FF48073C3614FF400330362D9
:101BA000456203F043FC18B9314BA3639C63AFE774
:101BB000FFF7A6FEF8E7002504952A4B5A6C42F47D
:101BC00000725A645A6C02F400720492049A0595E9
:101BD0001A6B42F004021A631A6B02F004020592B7
:101BE000059A06951A6B42F001021A631B6B03F00B
:101BF00001030693069B0423079303260896099581
:101C000007A9194803F0A6FA302307930896099507
:101C100007A9164803F09EFA1748184B03604FF0C7
:101C2000007343608560C5604FF4806303614FF4C7
:101C3000006343614FF4005383614FF48073C361C9
:101C40004FF400330362456203F0F0FB18B90A4B0E
:101C5000A3639C635CE7FFF753FEF8E700200140B5
:101C6000002101400038024000080240000002400C
:101C7000B4030020106402401404002040640240B9
:101C800008B50B480B4B03601023436000238360AF
:101C9000C36003614361037643768376C37603773B
:101CA000437701F0EBFA00B908BDFFF729FEFBE727
:101CB000740400200064004000B589B00023039341
:101CC00004930593069307930268164B9A4202D039
:101CD00009B05DF804FB0022019203F5EA33196CA8
:101CE00041F000711964196C01F0007101910199C2
:101CF0000292196B41F0010119631B6B03F00103A0
:101D00000293029B4FF4C053039302230493059262
:101D1000032306930923079303A9034803F01AFA40
:101D2000D6E700BF006400400000024010B582B05A
:101D3000002400941A4B1A6B42F400121A631A6BB7
:101D400002F400120092009A01941A6B42F480028D
:101D50001A631B6B03F480030193019B2246214607
:101D60000C2003F061FD0C2003F092FD2246214679
:101D70000E2003F059FD0E2003F08AFD2246214675
:101D8000382003F051FD382003F082FD2246214621
:101D90003A2003F049FD3A2003F07AFD02B010BD6D
:101DA0000038024008B50F480F4B03604FF48273B0
:101DB0004360002383604FF40062C260036101222C
:101DC00042614FF4007282612022C2610362436269
:101DD00083620A23C36201F053FB00B908BDFFF719
:101DE0008FFDFBE79C040020003C004000B589B05B
:101DF0000023039304930593069307930268164BFD
:101E00009A4202D009B05DF804FB0022019203F56A
:101E1000FE33196C41F400411964196C01F400415E
:101E2000019101990292196B41F0040119631B6B36
:101E300003F004030293029B4FF4E0530393022345
:101E400004930592032306930623079303A90348EB
:101E500003F080F9D6E700BF003C004000080240D4
:101E600000B58DB00023019302931348134A02601A
:101E700043608360C3600361836101220392049322
:101E8000059206930793089309920A930B9303A96B
:101E900001F050FF50B900230193029301A90648B5
:101EA00002F0C7F828B90DB05DF804FBFFF728FD74
:101EB000F1E7FFF725FDF6E73405002000080040B4
:101EC00000B583B00023009301930F480F4A0260CE
:101ED0005322426083604FF6FF72C260836101F05B
:101EE000DBFE50B90023009301936946064802F0D7
:101EF000A0F828B903B05DF804FBFFF701FDF1E796
:101F0000FFF7FEFCF6E700BF74050020001000405C
:101F100000B583B00023009301930E480E4A02607F
:101F2000436083604FF4D272C260836101F0B4FEFB
:101F300050B90023009301936946064802F079F8EE
:101F400028B903B05DF804FBFFF7DAFCF1E7FFF70F
:101F5000D7FCF6E7B40500200014004000B589B0B6
:101F60000023039304930593069307930268144B8D
:101F70009A4202D009B05DF804FB0022019203F5F9
:101F80000C33196C41F004011964196C01F004015F
:101F9000019101990292196B41F0020119631B6BC7
:101FA00003F002030293029BC023039302230493D2
:101FB00005920692079303A9024803F0CBF8D9E7EC
:101FC000000800400004024000B583B00368184ACE
:101FD000934205D0174A934216D003B05DF804FB34
:101FE00000210091144B1A6C42F010021A641B6C11
:101FF00003F010030093009B0A46362003F014FC04
:10200000362003F045FCE8E7002101910A4B1A6CE9
:1020100042F020021A641B6C03F020030193019B21
:102020000A46372003F000FC372003F031FCD4E7E8
:1020300000100040001400400038024002680E4BBF
:102040009A4200D0704700B583B00021019103F59A
:102050009A335A6C42F002025A645B6C03F002033A
:102060000193019B0A462C2003F0DEFB2C2003F099
:102070000FFC03B05DF804FB0004014070B588B0AC
:10208000002303930493059306930793026803F1D7
:10209000804303F582339A4201D008B070BD00241A
:1020A000009403F59A331A6B42F001021A631A6B1B
:1020B00002F001020092009A01941A6B42F00202AF
:1020C0001A631A6B02F002020192019A02941A6BCF
:1020D00042F004021A631B6B03F004030293029B99
:1020E00080230393022604960594069403250795FE
:1020F00003A90C4803F02EF8039504960594069462
:10210000079503A9084803F025F84FF4E0730393FB
:10211000049605940694079503A9044803F01AF859
:10212000BBE700BF0000024000040240000802407C
:1021300030B593B000241094119409940A940B9430
:102140000C940D940E940F9420252A46214601A844
:1021500003F0AEFC3748384B0360446085604FF4B1
:102160005263C3600461012343618023836101F0F2
:10217000C7FD002845D12F4801F0A8FD002843D114
:10218000202310930023119310A92A4801F051FF36
:1021900000283CD16023099300220A920B920C92F2
:1021A0000D920E920F9209A9224801F078FE0028A4
:1021B00030D1042209A91F4801F071FE68BB082232
:1021C00009A91C4801F06BFE50BB702309930C2237
:1021D00009A9184801F034FE28BB0023019302939B
:1021E0000393049305934FF400520692089301A9B8
:1021F000104801F041FFC8B90E48FFF73FFF13B088
:1022000030BDFFF77DFBB6E7FFF77AFBB8E7FFF7D6
:1022100077FBBFE7FFF774FBCBE7FFF771FBCEE778
:10222000FFF76EFBD1E7FFF76BFBD6E7FFF768FB25
:10223000E2E700BFF40400200004014008B50A48AA
:102240000A4B03604FF4E133436000238360C360B3
:1022500003610C2242618361C36102F051F900B94C
:1022600008BDFFF74DFBFBE7540600200048004087
:1022700030B589B000230393049305930693079325
:102280000268344B9A4201D009B030BD04460025A3
:10229000019503F5F8331A6C42F480221A641A6C23
:1022A00002F480220192019A02951A6B42F0020216
:1022B0001A631B6B03F002030293029B4FF440630B
:1022C0000393022304930123059303230693072317
:1022D000079303A9204802F03DFF2048204B0360EC
:1022E0004FF0006343608560C5604FF48063036115
:1022F00045618561C5610562456203F097F818BBC9
:10230000164B63639C631748174B03604FF00063E1
:102310004360402383600023C3604FF48062026106
:1023200043618361C3610362436203F07FF870B964
:102330000C4B23639C6300220121272003F074FAD5
:10234000272003F0A5FA9FE7FFF7DAFAD8E7FFF7AF
:10235000D7FAEDE70048004000040240F4050020F1
:10236000286002409406002058600240014B06227B
:102370001A7070470803002008B5054B1868FEF76F
:10238000E3F802460B46034800F04EFA08BD00BFD2
:102390001C03002008A00008F8B505460E461746A5
:1023A000114800F041FA2946104800F03DFA002497
:1023B000EBB2A3420BDD07EB84031868FEF7C4F809
:1023C00002460B460A4800F02FFA0134F0E70024D9
:1023D00005E056F82410074800F026FA0134B4EB63
:1023E000252FF6DBF8BD00BF18A000082CA00008C0
:1023F0003CA0000848A00008012800D0704710B594
:1024000082B0D2ED007AFCEEE77ACDED017A9DF84C
:1024100004402046FEF750FF052003F0AFFA2146A6
:10242000024800F001FA02B010BD00BF60A0000831
:1024300008B50849084800F019FB0849084800F0A9
:1024400015FB0849084800F011FB0849084800F04E
:102450000DFB08BD9923000880A00008F92300089F
:1024600088A000087923000890A000086D230008C8
:1024700098A0000810B400221146144600E0013272
:102480000E2A06DC0123934099B20342F7D00134AF
:10249000F5E714F0010F04D0490088B25DF8044B51
:1024A00070470020FAE710B540EA813084B2204638
:1024B000FFF7E0FF204380B210BD00002DE9F0419E
:1024C00084B080460025ADF80C5001210846FFF786
:1024D000EAFFADF80E002D4C2A464FF4004120468D
:1024E00002F01EFF2A4F642301220DF10E0138462F
:1024F00001F006F8274E307001224FF400412046CB
:1025000002F00EFF01214046FFF7CDFFADF80E00AF
:102510002A464FF40041204602F002FF4FF06408C3
:10252000CDF8008001231C4A0DF10E01384601F060
:10253000B9F8307001224FF40041204602F0F0FE5D
:1025400001212846FFF7AFFFADF80E002A464FF4F1
:102550000041204602F0E4FECDF80080012303AAEA
:102560000DF10E01384601F09DF8307001224FF454
:102570000041204602F0D4FE337823B9BDF80C00A8
:1025800004B0BDE8F0810020FAE700BF000002407F
:102590009C040020D8020020F406002008B543F671
:1025A000FF70FFF78BFF10F4804F02D1C0F30D00D6
:1025B00008BD4FF6FF70FBE710B50446FFF7EEFFCE
:1025C00000EE100A54B9B8EEC00ADFED0A7A20EE28
:1025D000270ADFED097A20EE270A10BDB8EEC00AFF
:1025E000DFED067A20EE270ADFED037A20EE270AD8
:1025F000F3E700BFDA0FC940000080380000B443A1
:102600002DE9F04184B0054601210846FFF74BFF54
:10261000ADF80E00364C00224FF40041204602F087
:102620007FFE344E642301220DF10E01304600F08E
:1026300067FF01224FF40041204602F071FE0021A5
:102640001820FFF730FFADF80E0000224FF40041D4
:10265000204602F065FE284F4FF06408CDF8008058
:1026600001233A460DF10E01304601F01BF801221C
:102670004FF40041204602F053FEA800002100F074
:10268000FC00FFF710FFADF80E0000224FF40041F0
:10269000204602F045FECDF8008001233A460DF1B8
:1026A0000E01304600F0FEFF01224FF400412046AB
:1026B00002F036FE01210020FFF7F5FEADF80E0016
:1026C00000224FF40041204602F02AFECDF800809F
:1026D00001233A460DF10E01304600F0E3FF0122DE
:1026E0004FF40041204602F01BFE04B0BDE8F0812B
:1026F000000002409C040020DA02002008B50A46CF
:102700000D4B1B78012B0BD0022B0FD003B108BD52
:102710004FF47A7301460948006801F020FFF6E79C
:102720000146064B186801F08AFFF0E70146034BAB
:10273000186801F0D7FFEAE7DC020020E40200207D
:1027400008B50D4B1B78012B02D0022B07D008BD1A
:1027500001220A490A4B186801F095FFF7E7084B78
:1027600018680268D36843F01003D3601D2205493E
:1027700001F0FEFFEBE700BF9C0000207D0700207A
:10278000E4020020F806002008B5054B1970054B3F
:102790001A70054B1860FFF74BFEFFF7D1FF08BD1D
:1027A000DC0200209C000020E402002000B585B07F
:1027B0008DED000ACDED010A8DED021ACDED031A63
:1027C00009480D2303750A234375009B4360019B51
:1027D0008360029BC360039B03611621FFF78EFF9A
:1027E00005B05DF804FB00BFA00000200FB410B5D9
:1027F00082B004AB53F8042B0193094C65212046A9
:1028000004F0E0FC4FF47A7382B221460548006878
:1028100001F0A5FE02B0BDE8104004B0704700BF53
:1028200018070020E40200200FB410B582B004ABFA
:1028300053F8042B0193074C6521204604F0C2FC99
:1028400081B22046FFF75AFF02B0BDE8104004B045
:10285000704700BF18070020114B1B68834200D04F
:10286000704710B50F4B1B680F4A11780F4AD154AF
:102870005C1E125D0D2A01D10A2907D00133094AD5
:1028800013600122084901F0FEFE10BD0023074A33
:102890001355074A01211170024A1360F5E700BF82
:1028A000E4020020E00200207D070020F80600205E
:1028B0001607002010B582B0044600230193036878
:1028C0001A6801925B680193019B074B1868A0424C
:1028D00001D002B010BD01F09FFF23681A685B6849
:1028E000024B01221A70F4E7E402002016070020D0
:1028F00008B5044800F0E6F8FFF722FF024B00227B
:102900001A7008BDF8060020160700202DE9F843CC
:1029100007460E469146102003F0BAF8C9F80000A9
:10292000102003F0B5F80446002505E0142003F05C
:10293000AFF844F825000135032DF7DD102003F032
:10294000A7F88046002505E0142003F0A1F848F818
:1029500025000135032DF7DDC6F8008000210E4665
:102960000D4608460A4612E054F825100B70013552
:102970000021012009E0022823D005F1804C0CF150
:10298000FF3C54F82CC00CF8013001310132BB5C23
:10299000B3B30D2B34D0042D32DC042E30DC1329DC
:1029A0002EDC202B16D00028E5D12F49595C11F0E0
:1029B000030FD9D058F826100B70013600210220E1
:1029C000E3E706F1804C0CF1FF3C58F82CC00CF802
:1029D0000130DAE7022803D0012809D00020D5E72A
:1029E00006F18043013B58F8233000205854CDE7CE
:1029F00005F18043013B54F8233000205854C5E7CB
:102A0000022803D0012809D0002723E006F18043E3
:102A1000013B58F8233000225A54F5E705F1804372
:102A2000013B54F8233000225A54EDE74FEA87085F
:102A300054F8270003F005F851EC100BD9F80030DA
:102A40009844FEF7D1F8C8F8000054F8270003F0C6
:102A500027F80137032FE9DD204603F021F845EA86
:102A6000062000B2BDE8F883E1A80008084BD3F8BF
:102A7000C830312B0ADC064A42F8230003F1320049
:102A800002EB800041600133C2F8C830704700BFDC
:102A90008007002030B4002300E001331D46C25CF3
:102AA0002AB1CC5C1CB1A242F7D0002006E04A5DFE
:102AB000202A02D00AB10D2A02D1D8B230BC704708
:102AC0000020FBE730B583B005460024184BD3F84F
:102AD000C830A34226DD2946154B53F82400FFF7E2
:102AE000D9FF08B90134F1E76A4601A92818FFF7B0
:102AF0000DFF32340E4B03EB84046368009A019996
:102B00009847009802F0CCFF002405E0019B53F8A1
:102B1000240002F0C5FF0134032CF7DD019802F018
:102B2000BFFF02E00348FFF77FFE03B030BD00BFE8
:102B300080070020A8A0000830B4DFED467A20EE20
:102B4000270AFDEEC07AB5EEC00AF1EE10FA7AD48B
:102B5000F8EEE77A70EE677A9FED3F0A67EE807ACB
:102B6000BCEEE77A17EE103AC3F3080303F18002D4
:102B7000C2F3080207EE103AB8EE477A77EEC77A4A
:102B8000364C04EB820595ED006A013204EB8202BB
:102B900092ED003A04EB830292ED004AF1EE444AD2
:102BA000013304EB8303D3ED006A73EE465A34EE2F
:102BB000E67A9FED2B5A27EE057A75EEA53A37EEA9
:102BC000637A27EE877AF0EE082A65EEA25A74EE51
:102BD000A43A73EEE63A63EE853A75EEE35A37EEC1
:102BE000257A27EE877A64EE854A37EE247A27EE37
:102BF000877A37EE067A81ED007A76EEC46A36EE91
:102C0000037A27EE057A76EEA65A37EE657A27EE36
:102C1000877A66EEA26A76EE065A75EE835A65EEFC
:102C2000855A76EEE56A37EE267A27EE877A26EE23
:102C3000056A37EE067A67EE877A74EE277AC0ED7A
:102C4000007A30BC704717EE903A013B07EE903A9D
:102C50007EE700BF610B363B00000044BCA00008CB
:102C6000DB0F493C7047FEE7FEE7FEE7FEE77047F3
:102C70007047704708B502F06FFEFEF729FE08BDE9
:102C800008B5024802F0D0FC08BD00BFF4050020E2
:102C900008B5024802F0C8FC08BD00BF9406002039
:102CA00008B5024800F0D6FE08BD00BFF4040020BD
:102CB00008B5024800F0CEFE08BD00BF7405002034
:102CC00008B5024800F0C6FE08BD00BFB4050020EC
:102CD00008B5024802F0A8FC08BD00BFB4030020FC
:102CE00008B5024802F0A0FC08BD00BF1404002093
:102CF00010B5074C204601F08FFE23681B6813F0C7
:102D0000100F00D110BD2046FFF7D4FDFAE700BF39
:102D10005406002082B0002100910B4B5A6C42F403
:102D200080425A645A6C02F480420092009A0191E7
:102D30001A6C42F080521A641B6C03F080530193AA
:102D4000019B02B0704700BF003802404A4B5A68EE
:102D500022F440325A605A6841680A435A60026855
:102D6000536823F48073536002685368016943EA2F
:102D7000012353600268536823F040735360026874
:102D8000536881680B4353600268936823F40063BF
:102D9000936002689368C1680B439360826A374B03
:102DA0009A4257D00268936823F070639360026878
:102DB0009368816A0B4393600268936823F04053E1
:102DC000936002689368C16A0B43936002689368DA
:102DD00023F00203936002689368017E43EA410393
:102DE000936090F82030002B3FD00268536843F482
:102DF000006353600268536823F4604353600168C2
:102E00004B68426A013A43EA42334B600268D36A34
:102E100023F47003D3620168CB6AC269013A43EAC2
:102E20000253CB620268936823F4007393600268D4
:102E3000936890F8301043EA4123936002689368E6
:102E400023F48063936002689368416943EA8123B5
:102E5000936070470268936823F070639360026820
:102E6000936823F040539360B0E70268536823F4FB
:102E700000635360CAE700BF002301400100000F58
:102E800038B310B50446036C43B1236C13F0100F34
:102E90000BD00120002384F83C3010BDFEF728FE43
:102EA0000023636484F83C30EFE7236C23F48853F9
:102EB00023F0020343F0020323642046FFF746FF9A
:102EC00000206064236C23F0030343F001032364B8
:102ED000E0E701207047000030B583B013460022C0
:102EE000019290F83C20012A00F09A8005460122C8
:102EF00080F83C200268906810F0010F13D19068B0
:102F000040F0010090604B4A10684B4AA2FB002041
:102F1000800C00EB4000019002E0019C013C019418
:102F200001980028F9D12A68906810F0010F79D033
:102F3000286C20F4E06020F0010040F480702864E8
:102F4000526812F4806F05D02A6C22F4405242F489
:102F500080522A642A6C12F4805F36D06A6C22F0A8
:102F600006026A64002285F83C20AA6B3348D063CD
:102F7000AA6B33481064AA6B3248D0642A686FF099
:102F8000220010602868426842F08062426028682F
:102F9000826842F48072826028680A4600F14C011F
:102FA000A86B02F0A9FA284B5B6813F01F0F27D11A
:102FB0002B68264A934211D002F58072934207D0C3
:102FC000234A934214D000202DE000226A64C9E70E
:102FD00002F50072526812F01F0FF1D19A6812F0D8
:102FE000405F22D19A6842F080429A6000201AE045
:102FF00002F58072526812F0100FEFD0002012E03C
:103000002B68124A934201D000200CE09A6812F01B
:10301000405F0CD19A6842F080429A60002002E042
:10302000022000E0002003B030BD0020FBE70020BC
:10303000F9E700BFBC00002083DE1B4379300008A5
:103040005730000863300008002301400020014091
:1030500000220140704708B5806BFFF7FBFF08BDF9
:10306000704708B5806B40230364436C43F004034E
:103070004364FFF7F5FF08BD08B50346806B026C9B
:1030800012F0500F25D1036C43F4007303640368FE
:103090009A6812F0405F19D1027EBAB9DA6A12F466
:1030A000700F03D09A6812F4806F0FD15A6822F023
:1030B00020025A60036C23F480730364036C13F4DE
:1030C000805F03D1036C43F001030364FEF7FEF954
:1030D00008BD026C12F0100F04D1826BD26C18463E
:1030E0009047F5E7FFF7BCFFF2E7000030B482B08D
:1030F0000023019390F83C30012B00F0B7800123AE
:1031000080F83C300B68092B3ED90568EA689BB211
:1031100003EB43031E3B072404FA03F322EA0303F1
:10312000EB600568EA688C680B8803EB43031E3B81
:1031300004FA03F31343EB604B68062B3AD8056897
:103140006A6B03EB8303053B1F2404FA03F322EAB3
:1031500003036B6305686A6B4B6803EB8303053BF2
:103160000C8804FA03F313436B630268404B9A42E2
:1031700050D002683E4B9A4255D0002380F83C3034
:10318000184602B030BC704705682A699BB203EB51
:103190004303072404FA03F322EA03032B610568BF
:1031A0002A698C680B8803EB430304FA03F3134387
:1031B0002B61C1E70C2B16D805682A6B03EB830340
:1031C000233B1F2404FA03F322EA03032B6305685D
:1031D0002A6B4B6803EB8303233B0C8804FA03F34D
:1031E00013432B63C1E70568EA6A03EB8303413BA2
:1031F0001F2404FA03F322EA0303EB620568EA6A78
:103200004B6803EB8303413B0C8804FA03F313433D
:10321000EB62AAE70B68122BABD1164A536843F452
:1032200080035360A5E70B68103B012BA5D8114A1A
:10323000536843F4000353600B68102B9DD10E4B71
:103240001B6802F1467202F52E3202F28332A2FBB3
:1032500003239B0C03EB83035B00019302E0019BC0
:10326000013B0193019B002BF9D186E7022088E7FF
:103270000020014000230140BC000020002800F095
:10328000A18038B5044690F82030D3B12268136885
:1032900023F00203136002F06BFB054623685A68B3
:1032A00012F0020F10D002F063FB401B0A28F5D980
:1032B000636A43F400336362052384F820300120FD
:1032C00038BDFEF7F9FCE1E71A6842F001021A6026
:1032D00002F04EFB054623685A6812F0010F0DD12B
:1032E00002F046FB401B0A28F5D9636A43F4003319
:1032F0006362052384F820300120E1E7227E012A61
:103300003DD01A6822F080021A60637E012B3BD008
:103310002268136823F040031360A37E012B39D089
:103320002268136823F020031360E37E012B37D05B
:103330002268136843F010031360237F012B35D0FC
:103340002268136823F008031360637F012B33D0D6
:103350002268136823F004031360A368E268134330
:1033600022691343626913436268013A2168134377
:10337000CB6100206062012384F82030A0E71A6846
:1033800042F080021A60C0E72268136843F04003ED
:103390001360C2E72268136843F020031360C4E798
:1033A0002268136823F010031360C6E722681368CD
:1033B00043F008031360C8E72268136843F004036E
:1033C0001360CAE7012070472DE9F04106468846A0
:1033D00017461D463468A46838EA04030CBF01246C
:1033E0000024BC4237D0B5F1FF3FF3D002F0C0FA61
:1033F000069BC01AA84201D2002DEBD13268536857
:1034000023F0E00353607368B3F5827F0BD0B36A97
:10341000B3F5005F14D0012386F85130002386F8FD
:103420005030032018E0B368B3F5004F02D0B3F575
:10343000806FECD13268136823F040031360E6E735
:103440003268136823F4005313603268136843F43E
:1034500000531360DFE70020BDE8F08110B582B0B3
:1034600004460B46009200228021FFF7ADFF08B909
:1034700002B010BD636D43F0200363650320F7E7DE
:1034800000283BD010B504460023836290F85130E9
:10349000002B2ED0022384F851302268136823F0C9
:1034A000400313606368A2681343E2681343226910
:1034B000134362691343A26902F400721343E26981
:1034C0001343226A1343A16A22680B431360638B80
:1034D00003F00403616A22680B4353602268D369D6
:1034E00023F40063D36100206065012384F8513028
:1034F00010BD80F85030FEF779FCCBE70120704713
:103500002DE9F04383B01D4690F85030012B00F0B8
:10351000C780044688469146012380F8503002F067
:1035200027FA074694F85160F6B2012E40F0A580C4
:10353000B8F1000F00F0A280B9F1000F00F09E80FA
:10354000032384F8513000236365C4F83080A4F865
:103550003490A4F83690A363A387E387636423645D
:10356000A368B3F5004F1ED023681A6812F0400F0D
:1035700003D11A6842F040021A60E368B3F5006FA5
:1035800017D0636813B1B9F1010F4DD1226B2368D5
:1035900012781A73236B01332363E38E9BB2013BD2
:1035A0009BB2E38640E02268136843F480431360D3
:1035B000DAE7636813B1B9F1010F16D1226B236802
:1035C0001288DA60236B02332363E38E9BB2013BE4
:1035D0009BB2E38609E002F0CBF9C01BA84202D3FC
:1035E000B5F1FF3F54D1002D54D0E38E9BB2002B98
:1035F0002ED023689A6812F0020FECD0226B12884A
:10360000DA60236B02332363E38E9BB2013B9BB2F0
:10361000E386EAE702F0ACF9C01BA84202D3B5F199
:10362000FF3F39D1002D39D0E38E9BB283B123689F
:103630009A6812F0020FEDD0226B12781A73236B86
:1036400001332363E28E92B2013A92B2E286EBE753
:103650003A4629462046FFF701FF08B1202363655B
:10366000A36833B901932368DA6801929B680193D8
:10367000019B636D13B9002600E00226012384F844
:103680005130002384F85030304603B0BDE8F08359
:103690000326F3E70326F1E70326EFE70326EDE72A
:1036A0000226F1E72DE9F04383B01F460A9D90F80A
:1036B0005030012B00F010810446884691460123CA
:1036C00080F8503002F054F9064694F85130DBB2DD
:1036D0006268012B0AD0B2F5827F40F0E380A268D5
:1036E000002A40F0E980042B40F0E880B8F1000F98
:1036F00000F0E680B9F1000F00F0E480002F00F048
:10370000E38094F85130DBB2042B02D0052384F817
:10371000513000236365C4F83890E787A787C4F861
:103720003080E786A7862364636423681A6812F0F2
:10373000400F03D11A6842F040021A60E368B3F503
:10374000006F11D063680BB1012F0BD1226B23687E
:1037500012781A73236B01332363E38E9BB2013B10
:103760009BB2E38601276BE063680BB1012F0BD19D
:10377000226B23681288DA60236B02332363E38EA3
:103780009BB2013B9BB2E38601271CE023689A6849
:1037900012F0010F0ED0E28F92B25AB1DA68A36B29
:1037A0001A80A36B0233A363E38F9BB2013B9BB2EE
:1037B000E387012702F0DCF8801BA84203D3B5F1B0
:1037C000FF3F40F08380E38E9BB21BB9E38F9BB237
:1037D000002B53D023689A6812F0020FD6D0E28EE5
:1037E00092B2002AD2D0002FD0D0226B1288DA6099
:1037F000236B02332363E38E9BB2013B9BB2E386D0
:103800000027C3E723689A6812F0010F0ED0E28FF9
:1038100092B25AB1DA68A36B1A70A36B0133A36337
:10382000E38F9BB2013B9BB2E387012702F0A0F834
:10383000831BAB4202D3B5F1FF3F49D1002D49D0E4
:10384000E38E9BB213B9E38F9BB2BBB123689A6836
:1038500012F0020FD6D0E28E92B2002AD2D0002F00
:10386000D0D0226B12781A73236B01332363E38E5B
:103870009BB2013B9BB2E3860027C3E73246294651
:103880002046FFF7EBFD48B9A36863B901932368AD
:10389000DA6801929B680193019B04E02023636531
:1038A000012000E00220012384F85130002384F835
:1038B000503003B0BDE8F0830220F4E70220F2E7C5
:1038C0000120F0E70120EEE70120ECE70320EAE722
:1038D0000320E8E70320E6E70220EAE730B4036AC2
:1038E00023F001030362056A4268846924F07304CB
:1038F0000B681C4325F002058B682B43104DA84232
:1039000003D005F58065A84205D123F00803CD68F2
:103910002B4323F004030A4DA84203D005F580652C
:10392000A84205D122F440724D6915438A692A43A1
:10393000426084614A684263036230BC704700BFE2
:103940000000014030B4036A23F480730362036A09
:103950004268C46924F073040D682C4323F4007397
:103960008D6843EA0523124DA84203D005F5806512
:10397000A84206D123F40063CD6843EA052323F46B
:1039800080630B4DA84203D005F58065A84207D19E
:1039900022F440524D6942EA05128D6942EA05124D
:1039A0004260C4614A68C263036230BC704700BFB2
:1039B0000000014030B4036A23F480530362036AB9
:1039C0004468C26922F4E6420D6842EA052223F403
:1039D00000538D6843EA0533094DA84203D005F52D
:1039E0008065A84204D124F480444D6944EA8514DA
:1039F0004460C2614A680264036230BC704700BF21
:103A000000000140022380F83D300268936803F013
:103A10000703062B03D0136843F00103136001234F
:103A200080F83D30002070470268D36843F00103FE
:103A3000D3600268936803F00703062B03D0136872
:103A400043F00103136000207047704770477047D0
:103A50007047704710B5044603681A6912F0020FE8
:103A600011D0DA6812F0020F0DD06FF002021A6165
:103A70000123037703689B6913F0030F70D0FFF7EE
:103A8000E6FF0023237723681A6912F0040F12D08F
:103A9000DA6812F0040F0ED06FF004021A610223EC
:103AA000237723689B6913F4407F5FD02046FFF79C
:103AB000CEFF0023237723681A6912F0080F12D073
:103AC000DA6812F0080F0ED06FF008021A610423B2
:103AD00023772368DB6913F0030F4ED02046FFF7EE
:103AE000B6FF0023237723681A6912F0100F12D053
:103AF000DA6812F0100F0ED06FF010021A6108236E
:103B000023772368DB6913F4407F3DD02046FFF71D
:103B10009EFF0023237723681A6912F0010F03D058
:103B2000DA6812F0010F36D123681A6912F0800F9B
:103B300003D0DA6812F0800F34D123681A6912F0CA
:103B4000400F03D0DA6812F0400F32D123681A69AF
:103B500012F0200F03D0DA6812F0200F30D110BD20
:103B6000FFF774FF2046FFF773FF8AE72046FFF751
:103B70006DFF2046FFF76CFF9BE72046FFF766FFCF
:103B80002046FFF765FFACE72046FFF75FFF2046C2
:103B9000FFF75EFFBDE76FF001021A612046FDF7F7
:103BA000DBFDC1E76FF080021A61204600F08EFA5B
:103BB000C3E76FF040021A612046FFF74AFFC5E7EE
:103BC0006FF020021A61204600F07FFAC7E700007C
:103BD0000368304A904212D0B0F1804F0FD0A2F566
:103BE0007C4290420BD002F58062904207D002F5F1
:103BF0008062904203D002F57842904203D123F0D4
:103C000070034A681343234A90422AD0B0F1804F90
:103C100027D0A2F57C42904223D002F580629042E8
:103C20001FD002F5806290421BD002F5784290428C
:103C300017D002F57052904213D002F58062904284
:103C40000FD002F5806290420BD0A2F598329042DC
:103C500007D002F58062904203D002F58062904264
:103C600003D123F44073CA68134323F080034A69E5
:103C7000134303608B68C3620B688362054B9842F1
:103C800003D003F58063984201D10B6903630123DC
:103C90004361704700000140B0B110B5044690F890
:103CA0003D3063B1022384F83D30214651F8040BC6
:103CB000FFF78EFF012384F83D30002010BD80F80F
:103CC0003C30FEF781F9EDE701207047B0B110B547
:103CD000044690F83D3063B1022384F83D3021461C
:103CE00051F8040BFFF774FF012384F83D300020E6
:103CF00010BD80F83C30FFF7A8FEEDE701207047CB
:103D0000B0B110B5044690F83D3063B1022384F899
:103D10003D30214651F8040BFFF75AFF012384F888
:103D20003D30002010BD80F83C30FEF787F9EDE70C
:103D300001207047002849D0F8B50C46054690F898
:103D40003D30002B3DD0022385F83D302A68936832
:103D500023F4804323F007039360294651F8040BB2
:103D6000FFF736FF29688A688E690F6A206810435A
:103D700026F4407626F00306A268A36942EA0323EC
:103D8000334323F47C4323F0FC03E668E26946EA0C
:103D900002261E43226A1303226943EA02133343B5
:103DA00027F0AA076268646942EA04123A4388600D
:103DB00029688B612B681A62012385F83D30002049
:103DC000F8BD80F83C30FEF7C9F8BCE70120704729
:103DD00030B4036A23F010030362036A4468826903
:103DE00022F4E6420D6842EA052223F020038D68A2
:103DF00043EA0513114DA84203D005F58065A8429A
:103E000006D123F08003CD6843EA051323F0400375
:103E10000A4DA84203D005F58065A84207D124F4D5
:103E200040644D6944EA85048D6944EA8504446030
:103E300082614A688263036230BC704700000140BF
:103E400090F83C30012B28D010B50446012380F8AF
:103E50003C30022380F83D300C2A0BD8DFE802F01A
:103E6000070A0A0A110A0A0A150A0A0A190000684A
:103E7000FFF734FD012384F83D30002084F83C0036
:103E800010BD0068FFF7A4FFF4E70068FFF75AFDD4
:103E9000F0E70068FFF78EFDECE70220704738B5C9
:103EA00090F83C30012B66D004460D46012380F883
:103EB0003C30022380F83D300C2A1AD8DFE802F0AB
:103EC0000719191920191919341919194700006807
:103ED000FFF704FD2268936943F0080393612268A9
:103EE000936923F0040393612268936929690B4362
:103EF0009361012384F83D30002084F83C0038BDF4
:103F00000068FFF765FF2268936943F400639361DB
:103F10002268936923F48063936122689369296915
:103F200043EA01239361E4E70068FFF70BFD226891
:103F3000D36943F00803D3612268D36923F00403F3
:103F4000D3612268D36929690B43D361D1E7006843
:103F5000FFF730FD2268D36943F40063D361226820
:103F6000D36923F48063D3612268D369296943EA62
:103F70000123D361BDE70220C1E710B401F01F01A6
:103F8000012303FA01F4036A23EA04030362036AC8
:103F900002FA01F10B4303625DF8044B7047000025
:103FA00010B5044601220068FFF7E7FF23680B4ABB
:103FB000934203D002F58062934203D15A6C42F4DB
:103FC00000425A642268936803F00703062B03D06B
:103FD000136843F001031360002010BD000001408E
:103FE00010B401F01F01042303FA01F4036A23EA69
:103FF00004030362036A02FA01F10B4303625DF8F2
:10400000044B704710B5044604220068FFF7E8FF30
:104010002268536C43F4004353642268936803F0AE
:104020000703062B03D0136843F00103136000203D
:1040300010BD90F83C30012B1CD070B4012680F8E4
:104040003C60022380F83D3002685568936825F093
:1040500070050C682C4323F080054B682B4354609B
:104060000268936080F83D60002380F83C30184679
:1040700070BC70470220704790F83C30012B22D072
:10408000012380F83C30CB6823F440738A681343E3
:1040900023F480634A68134323F400630A681343DC
:1040A00023F480530A69134323F400534A691343EA
:1040B00023F48043CA69134302685364002380F8E1
:1040C0003C301846704702207047704770470268BE
:1040D000D36823F0C003D360202380F839307047C1
:1040E0000268D36823F49073D3600268536923F0A5
:1040F00001035361202380F83A30704790F839303B
:10410000DBB2212B01D0022070478368B3F5805FBA
:1041100017D0036A5A1C02621A7803685A60C38C6B
:104120009BB2013B9BB2C3844BB90268D36823F0B6
:104130008003D3600268D36843F04003D36000205B
:104140007047036A1B880268C3F30803536003695E
:104150001BB9036A02330362E1E7036A01330362B6
:10416000DDE700002DE9F84304460268136923F4F3
:104170004053C1680B43136183680269134342696A
:104180001343C2691A430168CB6823F4164323F032
:104190000C031343CB600268536923F440738169B5
:1041A0000B435361C369B3F5004F60D00368B84A4D
:1041B000934200F0148102F58062934200F00F8177
:1041C00000F0A8FF00EB800000EB80006568AD0008
:1041D000B0FBF5F5AF4EA6FB05356D092F0100F0DC
:1041E00099FF00EB800505EB850563689B00B5FB37
:1041F000F3F900F08FFF00EB800000EB80006568B2
:10420000AD00B0FBF5F5A6FB05356D094FF0640870
:1042100008FB15952D013235A6FB05356D0905F016
:10422000F0053D4400F076FF00EB800000EB8000DD
:104230006768BF00B0FBF7F700F06CFF00EB800091
:1042400000EB800063689B00B0FBF3F0A6FB00303E
:10425000400908FB10784FEA081808F13208A6FB5D
:104260000836C6F3431623682E449E600DE10368AA
:10427000874A93425BD002F58062934257D000F0A8
:1042800049FF00EB800000EB800065686D00B0FB2B
:10429000F5F5804EA6FB05356D092F0100F03AFFBC
:1042A00000EB800000EB800065686D00B0FBF5F965
:1042B00000F030FF00EB800000EB800065686D00CF
:1042C000B0FBF5F5A6FB05356D094FF0640808FB5A
:1042D0001595ED003235A6FB05356D096D0005F429
:1042E000F8753D4400F016FF00EB800000EB800005
:1042F00067687F00B0FBF7F700F00CFF00EB800071
:1043000000EB800063685B00B0FBF3F3A6FB0323C4
:104310005B0908FB13784FEAC80808F13208A6FBCE
:104320000836C6F3421623682E449E60ADE000F0C6
:1043300001FF00EB800000EB800065686D00B0FBC2
:10434000F5F5544EA6FB05356D092F0100F0F2FE80
:1043500000EB800000EB800065686D00B0FBF5F9B4
:1043600000F0E8FE00EB800000EB800065686D0067
:10437000B0FBF5F5A6FB05356D094FF0640808FBA9
:104380001595ED003235A6FB05356D096D0005F478
:10439000F8753D4400F0CEFE00EB800000EB80009D
:1043A00067687F00B0FBF7F700F0C4FE00EB800009
:1043B00000EB800063685B00B0FBF3F3A6FB032314
:1043C0005B0908FB13784FEAC80808F13208A6FB1E
:1043D0000836C6F3421623682E449E6055E000F06E
:1043E000A9FE00EB800000EB80006568AD00B0FB2B
:1043F000F5F5284EA6FB05356D092F0100F09AFE54
:1044000000EB800505EB850563689B00B5FBF3F9C0
:1044100000F090FE00EB800000EB80006568AD00CE
:10442000B0FBF5F5A6FB05356D094FF0640808FBF8
:1044300015952D013235A6FB05356D0905F0F00502
:104440003D4400F077FE00EB800000EB80006768E1
:10445000BF00B0FBF7F700F06DFE00EB800000EB53
:10446000800063689B00B0FBF3F0A6FB00304009BE
:1044700008FB10784FEA081808F13208A6FB083646
:10448000C6F3431623682E449E60BDE8F88300BF40
:10449000001001401F85EB512DE9F84305460F46FA
:1044A00016469946DDF820802C68246837EA040314
:1044B0000CBF01240024B4421FD1B8F1FF3FF3D058
:1044C000B8F1000F05D001F053FAA0EB0900404508
:1044D000EAD92A68D36823F4D073D3602A68536971
:1044E00023F001035361202385F8393085F83A30F1
:1044F000002385F83830032000E00020BDE8F88371
:1045000058B310B5044690F839300BB3242384F81F
:1045100039302268D36823F40053D3602046FFF774
:1045200021FE2268136923F49043136122685369C2
:1045300023F02A0353612268D36843F40053D36005
:104540000020E063202384F8393084F83A3010BD2D
:1045500080F83830FDF78CFED8E7012070472DE950
:10456000F04182B01E4690F83930DBB2202B58D192
:1045700004460D469046002957D0002A57D090F89F
:104580003830012B55D0012380F838300023C36325
:10459000212380F8393001F0EBF90746A4F8248094
:1045A000A4F8268017E000963B4600228021204692
:1045B000FFF772FF00283ED12B882268C3F308035F
:1045C000536023690BB9023505E0013503E015F8A6
:1045D000012B23685A60E38C9BB29BB1E28C92B2B0
:1045E000013A92B2E284A368B3F5805FDBD0009613
:1045F0003B46002280212046FFF74EFF0028E6D0F0
:1046000003200FE000963B46002240212046FFF7A2
:1046100043FF90B9202384F83930002384F83830E0
:1046200000E0022002B0BDE8F0810120FAE701209D
:10463000F8E70220F6E70320F4E70320F2E790F81A
:104640003930DBB2202B16D1B9B1C2B190F8383075
:10465000012B16D001628284C2840023C36321220D
:1046600080F8392080F838300168CA6842F080024A
:10467000CA60184670470220704701207047012029
:1046800070470220704790F83A30DBB2202B20D1DF
:1046900009B312B390F83830012B20D081628285A3
:1046A000C2850023C363222280F83A2080F8383084
:1046B0000168CA6842F48072CA6001684A6942F0BF
:1046C00001024A610168CA6842F02002CA601846C5
:1046D0007047022070470120704701207047022078
:1046E0007047000038B590F83930DBB2202B31D15B
:1046F0000446002930D0002A30D090F83830012B01
:104700002ED0012380F8383001628284C2840025D3
:10471000C563212380F83930036B1248D863236BBB
:1047200011481864236B1148D864236B1D652068F9
:104730001346021D206B00F0DFFE23686FF040027D
:104740001A6084F838502268536943F0800353613B
:10475000284600E0022038BD0120FCE70120FAE7EE
:104760000220F8E77F480008CB480008BF4900084E
:1047700030B583B0044690F83A00C0B220283CD14E
:1047800000293DD0002A3DD094F83830012B3BD091
:10479000012384F83830A162A2850025E563222335
:1047A00084F83A30636B1948D863636B184818640F
:1047B000636B1848D864636B1D65206813460A460E
:1047C000011D606B00F098FE019523681A68019244
:1047D0005A680192019A84F83850DA6842F480727B
:1047E000DA602268536943F0010353612268536918
:1047F00043F040035361284600E0022003B030BD7F
:104800000120FBE70120F9E70220F7E7D54800087F
:10481000B3490008BF49000810B5044601684A6959
:1048200090F83930DBB2212B0AD021684A6902F0B6
:10483000400294F83A30DBB2222B11D0002010BD98
:1048400002F08002002AF0D04B6923F080034B6114
:10485000006B08B100F08AFE2046FFF738FCE4E761
:10486000002AEBD04B6923F040034B61606B08B129
:1048700000F07CFE2046FFF733FCDFE7704708B509
:104880000346806B1B681B6813F4807F0CD10023E8
:10489000C3840268536923F0800353610268D368BC
:1048A00043F04003D36008BDFFF7E8FFFBE708B51E
:1048B0000168CA6822F04002CA60202280F83920CC
:1048C000FFF7DCFF002008BD704708B5806BFFF7DD
:1048D000FBFF08BD08B50346806B1B681B6813F41B
:1048E000807F13D10023C3850268D36823F48073CB
:1048F000D3600268536923F001035361026853696E
:1049000023F040035361202380F83A30FDF7A4FFE1
:1049100008BD08B590F83A30DBB2222B46D1836847
:10492000B3F5805F0FD003690BBB03685A68836AD5
:10493000591C81621A70C38D9BB2013B9BB2C38527
:10494000F3B1002008BD826A036943B903685B685C
:10495000C3F308031380836A02338362EBE70368BF
:104960005B68DBB21380836A01338362E3E7036829
:104970005B68826A511C816203F07F031370DAE77F
:104980000268D36823F02003D3600268D36823F45D
:104990008073D3600268536923F0010353612023BD
:1049A00080F83A30FDF758FF0020CBE70220C9E736
:1049B000704708B5806BFFF7FBFF08BD704710B567
:1049C000846B23685A6994F83930DBB2212B10D0FC
:1049D00023685A6902F0400294F83A30DBB2222B85
:1049E00011D0E36B43F01003E3632046FFF7E6FFCB
:1049F00010BD02F08002002AEAD00023E3842046A2
:104A0000FFF765FBE4E7002AEBD00023E3852046AF
:104A1000FFF766FBE5E7000010B50446026813687F
:104A2000D168526913F00F0005D113F0200F02D0A6
:104A300011F0200F13D128B112F0010213D111F49B
:104A4000907F10D113F0800F02D011F0800F69D148
:104A500013F0400F02D011F0400F67D110BD204677
:104A6000FFF757FFFAE713F0010F06D011F4807F2C
:104A700003D0E06B40F00100E06313F0040F04D0BA
:104A80001AB1E06B40F00200E06313F0020F04D0B3
:104A90001AB1E06B40F00400E06313F0080F04D09B
:104AA0001AB1E26B42F00802E263E26B002AD5D051
:104AB00013F0200F02D011F0200F21D123685B6981
:104AC00003F04003E26B12F0080F00D123B320463D
:104AD000FFF706FB23685A6912F0400F18D05A6995
:104AE00022F040025A61636B73B1124A1A65606B1F
:104AF00000F086FD0028B1D0606B036D9847ADE7EC
:104B00002046FFF706FFD9E72046FFF757FFA5E746
:104B10002046FFF753FFA1E72046FFF74FFF002392
:104B2000E3639BE72046FFF7E9FA97E72046FFF7A4
:104B3000BEFE93E7394B000808B5806B0023C385A0
:104B4000C384FFF73BFF08BD002800F0B98170B5B2
:104B500082B00446036813F0010F3BD0A64B9B685C
:104B600003F00C03042B2CD0A34B9B6803F00C0325
:104B7000082B21D06368B3F5803F4FD0B3F5A02F49
:104B800052D09D4B1A6822F480321A601A6822F4BF
:104B900080221A606368002B50D000F0E9FE0546C1
:104BA000954B1B6813F4003F14D100F0E1FE401B4D
:104BB0006428F5D903208AE18F4B5B6813F4800FDA
:104BC000D8D08D4B1B6813F4003F03D06368002BD3
:104BD00000F07881236813F0020F54D0864B9B6855
:104BE00013F00C0F3ED0844B9B6803F00C03082B92
:104BF00033D0E368002B67D0804B01221A6000F0AD
:104C0000B7FE05467C4B1B6813F0020F53D100F032
:104C1000AFFE401B0228F5D9032058E1764A1368FD
:104C200043F480331360B5E7734B1A6842F4802273
:104C30001A601A6842F480321A60ABE700F098FEFE
:104C400005466D4B1B6813F4003FC3D000F090FE87
:104C5000401B6428F5D9032039E1674B5B6813F4E6
:104C6000800FC6D1644B1B6813F0020F03D0E368BA
:104C7000012B40F02981604A136823F0F803216971
:104C800043EAC1031360236813F0080F40D063693F
:104C900063B35B4B01221A6000F06AFE0546564B77
:104CA0005B6F13F0020F33D100F062FE401B02284D
:104CB000F5D903200BE1504A136823F0F80321696A
:104CC00043EAC1031360DEE74C4B00221A6000F098
:104CD0004FFE0546484B1B6813F0020FD3D000F07F
:104CE00047FE401B0228F5D90320F0E0444B002288
:104CF0001A6000F03DFE05463F4B5B6F13F0020F5C
:104D000006D000F035FE401B0228F5D90320DEE076
:104D1000236813F0040F78D0374B1B6C13F0805FBF
:104D20000DD100230193344B1A6C42F080521A6467
:104D30001B6C03F080530193019B012500E00025CB
:104D4000304B1B6813F4807F21D0A368012B32D035
:104D5000052B36D0284B1A6F22F001021A671A6F02
:104D600022F004021A67A368002B34D000F000FE82
:104D70000646214B1B6F13F0020F45D100F0F8FDE2
:104D8000801B41F288339842F3D903209FE01D4AEB
:104D9000136843F48073136000F0EAFD0646194B74
:104DA0001B6813F4807FD0D100F0E2FD801B022845
:104DB000F5D903208BE0104A136F43F0010313670A
:104DC000D1E70D4B1A6F42F004021A671A6F42F0D6
:104DD00001021A67C7E700F0CBFD0646064B1B6FC2
:104DE00013F0020F10D000F0C3FD801B41F2883396
:104DF0009842F3D903206AE000380240000047429D
:104E0000800E474200700040E5B9A369002B5DD0D9
:104E1000314A926802F00C02082A5AD0022B17D0AD
:104E20002E4B00221A6000F0A3FD04462A4B1B689B
:104E300013F0007F42D000F09BFD001B0228F5D943
:104E4000032044E0244A136C23F080531364DCE70E
:104E5000224B00221A6000F08BFD05461E4B1B689A
:104E600013F0007F06D000F083FD401B0228F5D927
:104E700003202CE0E369226A1343626A43EA821347
:104E8000A26A5208013A43EA0243E26A43EA026331
:104E9000114A5360114B01221A6000F069FD04466B
:104EA0000D4B1B6813F0007F06D100F061FD001B65
:104EB0000228F5D903200AE0002008E0002006E0DF
:104EC00001207047012002E0012000E0002002B034
:104ED00070BD0120FBE700BF003802406000474280
:104EE000F8B52F4B9B6803F00C03042B53D0082B11
:104EF00053D12B4B5A6802F03F025B6813F4800FCA
:104F000028D0274B5B68C3F3881358010021C01ACF
:104F100061F100018E0146EA906687013C1A66EB5A
:104F20000105E90041EA5471E000C01841F10001B7
:104F30004B0243EAD0534402204619460023FBF7B4
:104F4000A3FE174B5B68C3F3014301335B00B0FB67
:104F5000F3F023E0124B5B68C3F388135C01002578
:104F6000E41A65F10005AE0146EA9466A701381B14
:104F700066EB0501CC0044EA5074C500E81844F122
:104F800000018B0243EA9053840220461946002315
:104F9000FBF77AFED5E7034800E00348F8BD00BF01
:104FA0000038024000127A000024F400002800F0CB
:104FB0009A8070B50D4604464F4B1B6803F00F03F3
:104FC0008B4208D2CBB24C4A1370136803F00F0324
:104FD0008B4240F08A80236813F0020F17D013F041
:104FE000040F04D0454A936843F4E0539360236868
:104FF00013F0080F04D0414A936843F46043936070
:105000003E4A936823F0F003A1680B439360236842
:1050100013F0010F32D06368012B21D09A1E012AB0
:1050200025D9364A126812F0020F60D033498A68D7
:1050300022F0030213438B6000F09AFC06462F4BCC
:105040009B6803F00C036268B3EB820F16D000F08C
:105050008FFC801B41F288339842F0D9032041E055
:10506000264A126812F4003FE0D101203AE0234AB8
:10507000126812F0007FD9D1012033E01E4B1B686B
:1050800003F00F03AB4207D9EAB21B4B1A701B683F
:1050900003F00F03AB422CD1236813F0040F06D0AA
:1050A000164A936823F4E053E1680B439360236846
:1050B00013F0080F07D0114A936823F46043216965
:1050C00043EAC1039360FFF70BFF0C4B9B68C3F3EC
:1050D00003130B4AD35CD8400A4B1860002000F041
:1050E000FBFB002070BD012070470120FAE7012082
:1050F000F8E70120F6E700BF003C0240003802401C
:10510000C8A80008BC000020014B1868704700BF09
:10511000BC00002008B5FFF7F7FF044B9B68C3F302
:105120008223034AD35CD84008BD00BF0038024048
:10513000D8A8000808B5FFF7E7FF044B9B68C3F346
:105140004233034AD35CD84008BD00BF0038024058
:10515000D8A8000800230F2B00F2D980F0B482B049
:1051600039E0072200E00022B2403A430234684EA0
:1051700046F82420674A1468EA4324EA05064F6883
:1051800017F4803F01D045EA0406624C266064684B
:1051900002EA04064F6817F4003F01D045EA04060E
:1051A0005C4C6660A46802EA04064F6817F4801F2E
:1051B00001D045EA0406574CA660E46822404E68D8
:1051C00016F4001F01D045EA0402524CE26001339C
:1051D0000F2B00F2998001229A400C6804EA020524
:1051E00032EA0404F3D14C68022C01D0122C10D105
:1051F000DE08083650F826C003F00704A7000F2485
:10520000BC402CEA040C0C69BC4044EA0C0440F895
:105210002640D0F800C05E000324B440E7432CEAE7
:10522000040C4C6804F00304B44044EA0C04046029
:105230004C6804F1FF3CBCF1010F03D9112C01D0E3
:10524000122C10D1846807EA040CCC68B44044EAFC
:105250000C048460446824EA02024C68C4F300141D
:105260009C4014434460C26817408A68B2403A4385
:10527000C2604A6812F0805FA9D000220192264ADB
:10528000546C44F480445464526C02F480420192A1
:10529000019A9C08A61C1E4A52F8267003F00302CD
:1052A00096000F22B24027EA02071C4A90423FF4C0
:1052B0005AAF02F5806290421AD002F580629042A5
:1052C00018D002F58062904216D002F580629042BA
:1052D00014D002F58062904212D002F580629042B2
:1052E00010D002F5806290423FF43BAF08223BE7CA
:1052F000012239E7022237E7032235E7042233E7A8
:10530000052231E706222FE702B0F0BC7047704754
:1053100000380140003C01400038024000000240DB
:105320000AB18161704709048161704730B4056832
:105330002C6824F480242C60046863608368402B0C
:1053400005D0036899600368DA6030BC7047036871
:105350009A600368D960F8E710B40368D9B21039CD
:105360000C4AA2FB014212090B4CA25CC2655F29E8
:1053700009D923F47F7323F0030304338365806D1D
:105380005DF8044B704723F47F7323F003038365B8
:10539000F5E700BFABAAAAAAC0A80008836A826981
:1053A00092B9012B0AD0022B02D00BB1002070471A
:1053B000C36A13F0807F28D100207047C36AB3F11D
:1053C000C07F24D000207047B2F5005F09D0022BC7
:1053D00025D9032B25D1C36A13F0807F23D1002068
:1053E0007047032B03D8DFE803F01404140A0020ED
:1053F0007047C36A13F0807F0DD100207047C36AE5
:10540000B3F1C07F09D00020704701207047012010
:10541000704701207047012070470120704701202C
:1054200070470020704701207047000070B50446A7
:1054300000F09EFA002C5BD00546002384F834303F
:10544000022384F835302268136823F001031360C7
:1054500023681A6812F0010F0AD000F089FA431B82
:10546000052BF5D920236365032084F8350070BD32
:105470001A68204810406168A2680A43E1680A433C
:1054800021690A4361690A43A1690A43E1690A4340
:10549000216A0A430243616A04291ED01A60266801
:1054A000756925F00705636A1D43042B07D1A36ABC
:1054B0001D43E36A1BB12046FFF770FF90B9756189
:1054C0002046FFF749FFE26D3F23934083600020B1
:1054D0006065012384F83530C9E7E16A206B014338
:1054E0000A43DBE740236365012084F83500BEE70B
:1054F0000120BCE73F8010F038B50446856D90F878
:105500003400012830D0012084F8340094F83500AC
:10551000C0B2012804D0002384F83430022038BD02
:10552000022084F83500002060652046FFF7FEFE6B
:10553000E26D3F239340AB602268136843F016038B
:1055400013602268536943F080035361236C23B1D5
:105550002268136843F0080313602268136843F05D
:10556000010313600020DAE70220D8E770B5044693
:10557000866D00F0FDF994F83530DBB2022B06D0D1
:1055800080236365002384F83430012070BD054614
:105590002268136823F0160313602268536923F00E
:1055A00080035361236CE3B12268136823F008037E
:1055B00013602268136823F00103136023681B68DB
:1055C00013F0010F11D000F0D3F9431B052BF5D9CF
:1055D00020236365002384F83430032084F83500E9
:1055E000D4E7A36C002BDFD1E3E7E26D3F239340C8
:1055F000B360002084F83400012384F83530C5E717
:1056000090F83530DBB2022B03D0802343650120B4
:105610007047052380F835300268136823F00103D2
:105620001360002070470000F0B583B004460023EB
:105630000193724B1D68724BA3FB0535AD0A876D54
:105640003E68C26D08239340334210D003681A6845
:1056500012F0040F0BD01A6822F004021A60C26D17
:1056600008239340BB60436D43F001034365E26D43
:1056700001239340334209D02268526912F0800F0F
:1056800004D0BB60636D43F002036365E26D0423E5
:105690009340334209D02268126812F0020F04D0FE
:1056A000BB60636D43F004036365E26D10239340B8
:1056B000334224D02268126812F0080F1FD0BB605A
:1056C00023681A6812F4802F0DD01B6813F4002F82
:1056D00004D1236C9BB12046984710E0A36C73B1B2
:1056E000204698470BE01A6812F4807F03D11A68AD
:1056F00022F008021A60236C0BB120469847E26D35
:1057000020239340334255D02268126812F0100FC4
:1057100050D0BB6094F83530DBB2052B0ED0236837
:105720001A6812F4802F33D01B6813F4002F2AD18B
:10573000636C002B3ED0204698473BE022681368FC
:1057400023F0160313602268536923F0800353612A
:10575000236CA3B12268136823F008031360E26D81
:105760003F239340BB60002384F83430012384F846
:105770003530236D002B3FD0204698473CE0A36C8A
:10578000002BE7D1EBE7E36BA3B12046984711E08C
:105790001A6812F4807F09D11A6822F010021A6088
:1057A000002384F83430012384F83530E36B0BB1E7
:1057B00020469847636DFBB1636D13F0010F17D05E
:1057C000052384F835302268136823F00103136041
:1057D000019B01330193AB4204D823681B6813F08B
:1057E000010FF5D1002384F83430012384F83530DB
:1057F000E36C0BB12046984703B0F0BDBC0000201D
:10580000B5814E1B074AD36823F4E0631B041B0CCD
:10581000000200F4E060034343F0BF6343F400334D
:10582000D360704700ED00E030B4174BDB68C3F382
:105830000223C3F10704042C28BF04241D1D062DD8
:1058400018D9033B4FF0FF3505FA04F421EA0401AF
:10585000994005FA03F322EA0303194300280BDBFE
:105860000901C9B200F1604000F5614080F8001301
:1058700030BC70470023E5E700F00F000901C9B212
:10588000024B1954F4E700BF00ED00E014ED00E016
:10589000002807DB00F01F02400901239340024A61
:1058A00042F82030704700BF00E100E00138B0F15D
:1058B000807F0AD2064B5860064AF02182F82310F6
:1058C0000020986007221A6070470120704700BFCF
:1058D00010E000E000ED00E010B504460E4B187833
:1058E0004FF47A73B3FBF0F30C4A1068B0FBF3F09B
:1058F000FFF7DCFF68B90F2C01D901200AE0002274
:1059000021464FF0FF30FFF78FFF054B1C60002052
:1059100000E0012010BD00BFB6000020BC00002048
:10592000B800002008B50B4B1A6842F400721A60E8
:105930001A6842F480621A601A6842F480721A602F
:105940000320FFF75FFF0020FFF7C6FFFDF7E2F936
:10595000002008BD003C0240034A1168034B1B783D
:105960000B441360704700BF14090020B6000020EC
:10597000014B1868704700BF1409002038B5044671
:10598000FFF7F6FF0546B4F1FF3F02D0044B1B784A
:105990001C44FFF7EDFF401BA042FAD338BD00BF07
:1059A000B60000200F49D1F8883043F47003C1F8E5
:1059B00088300D4B1A6842F001021A60002098608E
:1059C0001A6822F0847222F480321A60074A5A6000
:1059D0001A6822F480221A60D8604FF000638B604E
:1059E000704700BF00ED00E0003802401030002496
:1059F000DFF834D0002103E00C4B5B5843500431F6
:105A00000B480C4B42189A42F6D30B4A02E0002393
:105A100042F8043B094B9A42F9D3FFF7C3FF00F069
:105A200013F8FBF7F5FE70470000022080AF000876
:105A30000000002094020020940200202809002089
:105A4000FEE7002101F086BB70B50D4D0D4C641BC7
:105A5000A4100026A64209D10B4D0C4C04F080FA8C
:105A6000641BA4100026A64205D170BD55F8043B66
:105A700098470136EEE755F8043B98470136F2E7C0
:105A800078AF000878AF000878AF00087CAF000856
:105A9000024B0146186800F063B800BFC000002048
:105AA000024B0146186800F00BB800BFC000002090
:105AB00002440346934200D1704703F8011BF9E703
:105AC00037B5002948D051F8043C0190002BA1F1D2
:105AD0000404B8BFE41802F06FFD204A019813686F
